:020000040800F2
:1000000000400020711E0008B14E0008B34E0008E9
:10001000B54E0008B74E0008B94E000800000000B9
:10002000000000000000000000000000BB4E0008BF
:100030000000000000000000BD4E0008BF4E000898
:10004000B91E0008B91E0008B91E0008B91E000834
:10005000B91E0008B91E0008B91E0008B91E000824
:10006000B91E0008B91E0008B91E0008B91E000814
:10007000B91E0008B91E0008B91E0008B91E000804
:10008000B91E0008B91E0008B91E0008B91E0008F4
:10009000B91E0008C34E0008C94E0008B91E00086A
:1000A000B91E0008B91E0008B91E0008B91E0008D4
:1000B000B91E0008B91E0008B91E0008B91E0008C4
:1000C000B91E0008B91E0008C14E0008B91E00087C
:0400D000B91E00084D
:1001000010B5054C237833B9044B13B10448AFF351
:1001100000800123237010BD28050020000000008E
:10012000AC56000808B5034B1BB103490348AFF3B5
:10013000008008BD000000002C050020AC5600081F
:1001400081F0004102E000BF83F0004330B54FEA88
:1001500041044FEA430594EA050F08BF90EA020FF5
:100160001FBF54EA000C55EA020C7FEA645C7FEA88
:10017000655C00F0E2804FEA5454D4EB5555B8BFAB
:100180006D420CDD2C4480EA020281EA030382EA1C
:10019000000083EA010180EA020281EA0303362DAE
:1001A00088BF30BD11F0004F4FEA01314FF4801C81
:1001B0004CEA113102D0404261EB410113F0004F93
:1001C0004FEA03334CEA133302D0524263EB43034A
:1001D00094EA050F00F0A780A4F10104D5F1200EE8
:1001E0000DDB02FA0EFC22FA05F2801841F1000143
:1001F00003FA0EF2801843FA05F359410EE0A5F117
:1002000020050EF1200E012A03FA0EFC28BF4CF047
:10021000020C43FA05F3C01851EBE37101F00045FD
:1002200007D54FF0000EDCF1000C7EEB00006EEB0A
:100230000101B1F5801F1BD3B1F5001F0CD3490894
:100240005FEA30004FEA3C0C04F101044FEA4452EB
:1002500012F5800F80F09A80BCF1004F08BF5FEA72
:10026000500C50F1000041EB045141EA050130BD52
:100270005FEA4C0C404141EB0101013C28BFB1F564
:10028000801FE9D291F0000F04BF01460020B1FAAF
:1002900081F308BF2033A3F10B03B3F120020CDA82
:1002A0000C3208DD02F1140CC2F10C0201FA0CF060
:1002B00021FA02F10CE002F11402D8BFC2F1200CC5
:1002C00001FA02F120FA0CFCDCBF41EA0C0190407B
:1002D000E41AA2BF01EB0451294330BD6FEA0404C4
:1002E0001F3C1CDA0C340EDC04F11404C4F12002AF
:1002F00020FA04F001FA02F340EA030021FA04F3C1
:1003000045EA030130BDC4F10C04C4F1200220FA17
:1003100002F001FA04F340EA0300294630BD21FA55
:1003200004F0294630BD94F0000F83F4801306BF1B
:1003300081F480110134013D4EE77FEA645C18BF0F
:100340007FEA655C29D094EA050F08BF90EA020FA6
:1003500005D054EA000C04BF1946104630BD91EA9E
:10036000030F1EBF0021002030BD5FEA545C05D1A1
:100370004000494128BF41F0004130BD14F58004E0
:100380003CBF01F5801130BD01F0004545F0FE4154
:1003900041F470014FF0000030BD7FEA645C1ABF89
:1003A000194610467FEA655C1CBF0B46024650EAC0
:1003B000013406BF52EA033591EA030F41F40021EC
:1003C00030BD00BF90F0000F04BF0021704730B572
:1003D0004FF4806404F132044FF000054FF0000147
:1003E00050E700BF90F0000F04BF0021704730B508
:1003F0004FF4806404F1320410F0004548BF4042DD
:100400004FF000013EE700BF42004FEAE2014FEA31
:1004100031014FEA02701FBF12F07F4393F07F4F0C
:1004200081F06051704732F07F4208BF704793F00F
:100430007F4F04BF41F40021704730B54FF4607422
:1004400001F0004521F000411CE700BF50EA010225
:1004500008BF704730B54FF000050AE050EA0102CE
:1004600008BF704730B511F0004502D5404261EB3E
:1004700041014FF4806404F132045FEA915C3FF47F
:10048000D8AE4FF003025FEADC0C18BF03325FEA1C
:10049000DC0C18BF033202EBDC02C2F1200300FACD
:1004A00003FC20FA02F001FA03FE40EA0E0021FAF2
:1004B00002F11444BDE600BF70B54FF0FF0C4CF4E0
:1004C000E06C1CEA11541DBF1CEA135594EA0C0F92
:1004D00095EA0C0F00F0DEF82C4481EA030621EACD
:1004E0004C5123EA4C5350EA013518BF52EA033508
:1004F00041F4801143F4801338D0A0FB02CE4FF0BA
:100500000005E1FB02E506F00042E0FB03E54FF0E9
:100510000006E1FB03569CF0000F18BF4EF0010EE1
:10052000A4F1FF04B6F5007F64F5407404D25FEADD
:100530004E0E6D4146EB060642EAC62141EA555190
:100540004FEAC52040EA5E504FEACE2EB4F1FD0CD2
:1005500088BFBCF5E06F1ED8BEF1004F08BF5FEA50
:10056000500E50F1000041EB045170BD06F0004602
:1005700046EA010140EA020081EA0301B4EB5C04AF
:10058000C2BFD4EB0C0541EA045170BD41F48011A7
:100590004FF0000E013C00F3AB8014F1360FDEBFCC
:1005A000002001F0004170BDC4F10004203C35DAA8
:1005B0000C341BDC04F11404C4F1200500FA05F32B
:1005C00020FA04F001FA05F240EA020001F00042CC
:1005D00021F0004110EBD37021FA04F642EB060142
:1005E0005EEA430E08BF20EAD37070BDC4F10C046C
:1005F000C4F1200500FA04F320FA05F001FA04F230
:1006000040EA020001F0004110EBD37041F100011B
:100610005EEA430E08BF20EAD37070BDC4F1200526
:1006200000FA05F24EEA020E20FA04F301FA05F28E
:1006300043EA020321FA04F001F0004121FA04F236
:1006400020EA020000EBD3705EEA430E08BF20EA06
:10065000D37070BD94F0000F0FD101F00046400040
:1006600041EB010111F4801F08BF013CF7D041EAC2
:10067000060195F0000F18BF704703F000465200C6
:1006800043EB030313F4801F08BF013DF7D043EA97
:100690000603704794EA0C0F0CEA135518BF95EA4D
:1006A0000C0F0CD050EA410618BF52EA4306D1D1D4
:1006B00081EA030101F000414FF0000070BD50EAF3
:1006C000410606BF1046194652EA430619D094EA7D
:1006D0000C0F02D150EA013613D195EA0C0F05D167
:1006E00052EA03361CBF104619460AD181EA0301BB
:1006F00001F0004141F0FE4141F470014FF0000073
:1007000070BD41F0FE4141F4780170BD70B54FF00D
:10071000FF0C4CF4E06C1CEA11541DBF1CEA13558D
:1007200094EA0C0F95EA0C0F00F0A7F8A4EB05046F
:1007300081EA030E52EA03354FEA013100F0888066
:100740004FEA03334FF0805545EA131343EA12632F
:100750004FEA022245EA111545EA10654FEA0026E4
:100760000EF000419D4208BF964244F1FD0404F59D
:10077000407402D25B084FEA3202B61A65EB0305F9
:100780005B084FEA32024FF480104FF4002CB6EBB6
:10079000020E75EB030E22BFB61A754640EA0C0036
:1007A0005B084FEA3202B6EB020E75EB030E22BF76
:1007B000B61A754640EA5C005B084FEA3202B6EBB7
:1007C000020E75EB030E22BFB61A754640EA9C0076
:1007D0005B084FEA3202B6EB020E75EB030E22BF46
:1007E000B61A754640EADC0055EA060E18D04FEA04
:1007F000051545EA16754FEA06164FEAC30343EAA4
:1008000052734FEAC2025FEA1C1CC0D111F4801F70
:100810000BD141EA00014FF000004FF0004CB6E769
:1008200011F4801F04BF01430020B4F1FD0C88BF08
:10083000BCF5E06F3FF6AFAEB5EB030C04BFB6EB13
:10084000020C5FEA500C50F1000041EB045170BD06
:100850000EF0004E4EEA113114EB5C04C2BFD4EB33
:100860000C0541EA045170BD41F480114FF0000EB7
:10087000013C90E645EA060E8DE60CEA135594EA33
:100880000C0F08BF95EA0C0F3FF43BAF94EA0C0F36
:100890000AD150EA01347FF434AF95EA0C0F7FF4AB
:1008A00025AF104619462CE795EA0C0F06D152EAFF
:1008B00003353FF4FDAE1046194622E750EA4106E3
:1008C00018BF52EA43067FF4C5AE50EA41047FF4F4
:1008D0000DAF52EA43057FF4EBAE12E74FF0FF3C59
:1008E00006E000BF4FF0010C02E000BF4FF0010C2A
:1008F0004DF804CD4FEA410C7FEA6C5C4FEA430CA3
:1009000018BF7FEA6C5C1BD001B050EA410C0CBFF1
:1009100052EA430C91EA030F02BF90EA020F002053
:10092000704710F1000F91EA030F58BF994208BFBA
:1009300090422CBFD8176FEAE37040F00100704777
:100940004FEA410C7FEA6C5C02D150EA013C07D1CE
:100950004FEA430C7FEA6C5CD6D152EA033CD3D019
:100960005DF8040B704700BF8446104662468C4613
:100970001946634600E000BF01B5FFF7B7FF002846
:1009800048BF10F1000F01BD4DF808EDFFF7F4FF6F
:100990000CBF012000205DF808FB00BF4DF808EDFA
:1009A000FFF7EAFF34BF012000205DF808FB00BF1D
:1009B0004DF808EDFFF7E0FF94BF012000205DF83F
:1009C00008FB00BF4DF808EDFFF7CEFF94BF0120F4
:1009D00000205DF808FB00BF4DF808EDFFF7C4FFED
:1009E00034BF012000205DF808FB00BF4FEA410240
:1009F00012F5001215D211D56FF47873B3EB625271
:100A000012D94FEAC12343F0004343EA505311F097
:100A1000004F23FA02F018BF404270474FF0000029
:100A2000704750EA013005D111F0004008BF6FF067
:100A3000004070474FF00000704700BF4A0011D2DD
:100A400012F5001211D20DD56FF47873B3EB625228
:100A50000ED44FEAC12343F0004343EA505323FA34
:100A600002F070474FF00000704750EA013002D1A9
:100A70004FF0FF3070474FF00000704753B94AB94C
:100A8000002908BF00281CBF4FF0FF314FF0FF3096
:100A900000F08AB9ADF1080C6DE904CE00F024F83D
:100AA000DDF804E0DDE9022304B07047D0B50C4B5B
:100AB000002206460F46FFF7FFFCFFF7BFFF044684
:100AC000FFF780FC074B0022FFF7F6FC02460B46BF
:100AD00030463946FFF738FBFFF7B0FF2146D0BD5F
:100AE0000000F03D0000F0412DE9F047089E0D4662
:100AF00004468E46002B40F082808A42174646D933
:100B0000B2FA82F24AB1C2F1200105FA02F320FAE8
:100B100001F1974041EA030E94404FEA1748230C35
:100B2000BEFBF8FCB9B208FB1CEE43EA0E430CFB1B
:100B300001F098420AD9FB180CF1FF3580F01681BC
:100B4000984240F21381ACF1020C3B441B1AA4B250
:100B5000B3FBF8F008FB103344EA034400FB01F157
:100B6000A14209D93C1900F1FF3380F00181A14273
:100B700040F2FE8002383C44641A40EA0C400021F6
:100B80001EB1D4400023C6E90043BDE8F08702B996
:100B9000FFDEB2FA82F2002A4FD1CB1B4FEA174E8A
:100BA0001FFA87F80121B3FBFEFC250C0EFB1C335A
:100BB00045EA034508FB0CF3AB4207D97D190CF15C
:100BC000FF3002D2AB4200F2E7808446ED1AA3B2B6
:100BD000B5FBFEF00EFB105543EA054408FB00F898
:100BE000A04507D93C1900F1FF3302D2A04500F21D
:100BF000D7801846A4EB080440EA0C40C0E78B42BB
:100C000008D9002E00F0AF800021C6E90005084693
:100C1000BDE8F087B3FA83F100294BD1AB4202D390
:100C2000824200F2B780841A65EB030301209E46DE
:100C3000002EAAD0C6E9004EA7E7C2F1200C01FAA7
:100C400002F3974020FA0CF04FEA174E21FA0CFC01
:100C50001843BCFBFEF1050C0EFB11CC1FFA87F804
:100C600045EA0C4501FB08F3AB4204FA02F409D94A
:100C70007D1901F1FF3C80F08B80AB4240F288800F
:100C800002393D44EB1A85B2B3FBFEF00EFB103384
:100C900045EA034500FB08F3AB4207D97D1900F193
:100CA000FF3C71D2AB426FD902383D44EB1A40EAA7
:100CB000014178E7C1F1200C8B4022FA0CF71F4369
:100CC00020FA0CF405FA01F34FEA174E25FA0CF559
:100CD0001C43230CB5FBFEF91FFA87F80EFB1955D0
:100CE00043EA054509FB08FAAA4502FA01F200FAAF
:100CF00001F308D97D1909F1FF3047D2AA4545D93A
:100D0000A9F102093D44A5EB0A05A4B2B5FBFEF02A
:100D10000EFB105544EA054400FB08F8A04507D92E
:100D20003C1900F1FF352DD2A0452BD902383C44A7
:100D300040EA0940A4EB0804A0FB02894C45C646E2
:100D40004D4619D316D05EB1B3EB0E0264EB050429
:100D500004FA0CFCCA404CEA0202CC40C6E900246A
:100D60000021BDE8F087314630460EE7AC46EDE69F
:100D7000184601E74345E6D2B8EB020E69EB0705DA
:100D80000138E0E72846D3E760468FE78146BAE7B7
:100D9000614677E708464BE7ACF1020C3D4415E7A6
:100DA00002383C4426E700BF704700BF0000000047
:100DB0000000000000000000000000000000000033
:100DC00090F800F06DE9024520F007016FF0000C8B
:100DD00010F0070491F820F040F049804FF0000433
:100DE0006FF00700D1E9002391F840F000F108000E
:100DF00082FA4CF2A4FA8CF283FA4CF3A2FA8CF346
:100E00004BBBD1E9022382FA4CF200F10800A4FAAC
:100E10008CF283FA4CF3A2FA8CF3E3B9D1E9042300
:100E200082FA4CF200F10800A4FA8CF283FA4CF337
:100E3000A2FA8CF37BB9D1E9062301F1200182FAF1
:100E40004CF200F10800A4FA8CF283FA4CF3A2FAF7
:100E50008CF3002BC6D0002A04BF04301A4612BA05
:100E6000B2FA82F2FDE8024500EBD2007047D1E908
:100E7000002304F00305C4F100004FEAC50514F097
:100E8000040F91F840F00CFA05F562EA05021CBF68
:100E900063EA050362464FF00004A9E79A4238BFAF
:100EA0008854704770472DE9F74FDDF83C9019F0F2
:100EB000030FDDE90D4607468B46154628D00C99F1
:100EC00001EB04081444A24226D119F0020F0AD003
:100ED000A4EB0508C1464E4505EB090226D835446A
:100EE000464528BF2C46204603B0BDE8F08F594642
:100EF00020200193B847019B08F10108B0450AEB97
:100F00000802F4D3321BB44288BF00222A44D6E739
:100F1000A046A2EB040AF1E702F1010A18F8010D5C
:100F200001935946B847019B5246CCE759462020C9
:100F3000019309F10109B847019BCCE72DE9F0477E
:100F4000DDE90D7616F0020FDDE90854DDE90BC886
:100F50009DF828E01FD106F001094FB1B9F1000F4B
:100F600006D0BEF1000F02D116F00C0F00D0013FE9
:100F70004FF0300A02E005F804A00134444501D2E4
:100F8000202CF8D14FF0300AB9F1000F03D0BC4249
:100F900001D21F2C34D916F0100F1FD016F4806F19
:100FA00033D194B3444501D0BC422ED1B4F10108F1
:100FB0002AD0BCF1100F33D1023C16F0200F31D1F2
:100FC0001F2C15D84FF0780C05F804C001341F2CE5
:100FD0000ED84FF0300C05F804C001341F2C07D890
:100FE000BEF1000F23D04FF02D0C05F804C00134E2
:100FF000CDE90A76CDE90854BDE8F047FFF753BFC5
:1010000005F804A00134BFE74446BCF1100FD4D06A
:10101000BCF1020FDBD11F2CEAD84FF0620CD3E7F2
:101020004446F5E71F2CE3D84FF0580CCCE716F0F8
:10103000040F02D04FF02B0CD7E716F0080FD7D0D3
:101040004FF0200CD1E72DE9F04391B0189D1A9E86
:101050001D9F0DB927F010077C0500D50DB317F0C3
:10106000200FAC460DF1200E4FF0000514BF4FF0DD
:1010700037084FF05708BCFBF6F906FB19C95FFAB1
:1010800089F4B9F1090F94BF30344444E4B2B44553
:101090000EF8014BBCFBF6F405F1010501D3202D40
:1010A00010D11C9C05941B9C0697CDE903649DF808
:1010B0006440CDE9015408AC0094FFF73FFF11B044
:1010C000BDE8F083A446D6E72DE9F04F93B0DDE903
:1010D0001CAB249D99465AEA0B0308BF25F0100566
:1010E0006B0506460F46904602D55AEA0B033CD0E4
:1010F0000AAB15F0200F089314BF372357230024A1
:101100000993DDE9202350465946FFF7B7FCD2B2D8
:10111000092A8ABF099B3032D218089BD2B203F841
:10112000012B0893DDE920239B4508BF924504F17C
:10113000010401D3202C15D1239B0593229B0493FA
:10114000209B03939DF878300695CDE901430AABC7
:10115000009342464B4639463046FFF7EFFE13B048
:10116000BDE8F08F82468B46CBE70024E4E7000021
:10117000014610B1014801F0ABBC7047003000409F
:101180002DE9F04F2DED068B91B0DDE9206708EEDB
:10119000100A08EE901A92469B4632463B4630466D
:1011A0003946229DFFF7F0FB80B9249B0393239BD4
:1011B000029303230193B64B009318EE901A18EE96
:1011C000100A5B465246FFF76EFE47E04FF0FF32D3
:1011D0006FF4801330463946FFF7E0FB38B1249BAB
:1011E0000393239B029304230193AA4BE4E7AA4BA6
:1011F0004FF0FF3230463946FFF7EEFB78B1249BC3
:10120000A64A2499039103F00403002B2399A44BCD
:101210000EBF032213460422CDE90121CCE798A397
:10122000D3E9002330463946FFF7D6FB38B996A3F9
:10123000D3E9002330463946FFF7B0FB98B1249B31
:101240000493239BCDE90067CDE9025318EE901A71
:1012500018EE100A5B46524600F02AF911B0BDECB8
:10126000068BBDE8F08F0022002330463946FFF799
:1012700095FB002800F082803B463246002000218A
:10128000FEF762FF012306460F460793249B13F4E3
:10129000806F08BF062508ABA5F12002A9463021C2
:1012A000B9F1090FA5EB090406D909F1FF394A453F
:1012B00003F8011BF4D1202439463046FFF796FB92
:1012C000784B03EBC90393ED007B0546B0EE479ADC
:1012D000F0EE679AFFF786F802460B46304639462D
:1012E000FEF732FF53EC192BFFF7E6F802460B46E8
:1012F00043EC1A2BFFF7A2FB8046FFF763F8024688
:101300000B4651EC1A0BFEF71FFF02460B4643EC4F
:101310001A2B654B0022FFF75FFB88B308F1010829
:101320004046FFF74FF802460B4651EC190BFFF70A
:101330003FFB10B101354FF00008B9F1000F4ED15D
:101340002846FFF74FF802460B4630463946FEF76F
:10135000FBFE554B002280468946FFF71FFB30B14C
:10136000514B002240464946FFF736FB10B1E807D3
:1013700000D5013508AB23440A2258E0079085E7E1
:10138000494B51EC1A0B0022FFF708FB0028D4D17F
:10139000B8F1000F02D018F0010FCED008F101080B
:1013A000CBE7B8FBF1F001FB10823032B8F1090F46
:1013B00003F8012B09F1FF3904F1010427D8A144F6
:1013C00008AA3021202C0FD04C4504F1010320D174
:1013D00010AA14442E2204F8202C1C46CAE708AB9D
:1013E00023440A21202CDCD1249B03F00303012B8E
:1013F00008AB2CD1239A52B3079A1AB9249A12F047
:101400000C0F02D0239A013A2392302214E0804636
:10141000E8E7A1541C46D5E795FBF2F102FB115514
:10142000303503F8015B01340D460029DCD0202C57
:10143000F2D1D9E71A5501342399A14207D9202CBA
:10144000F8D1249A0392239ACDE90142B4E6202CE4
:10145000F7D0079A32B110AA22442D2102F8201C9D
:101460000134EEE7249A510703D510AA22442B2118
:10147000F4E7249A1207E4D510AA22442021EDE7CC
:101480000000000065CDCD410000000065CDCDC15C
:10149000E6580008EA580008FFFFEF7FE15800080F
:1014A000DD580008C85600080000E03F00000000BA
:1014B0002DE9F04F2DED088B8DB01D46DDE920B3F1
:1014C0009DED1E7B0793229B0A9208EE900AB0EED8
:1014D000479AF0EE679A0C46069351EC170B53ECC3
:1014E000172BFFF751FA80B1CF4B51EC190B4FF08E
:1014F000FF32FFF771FA40B951EC190B4FF0FF3290
:101500006FF48013FFF74AFA90B1069B2293079B72
:101510000A9A18EE900ACDE920B321462B468DEDAC
:101520001E9B0DB0BDEC088BBDE8F04FFFF728BE49
:1015300051EC190B00220023FFF730FA002800F0CD
:101540004E8119EE903A19EE108A03F10049069B7C
:101550009FEDB67A9FEDB68A13F480630B93C9F3BF
:101560000A53A3F2FF3307EE903AC9F31302F8EEE1
:10157000E77A42F07F51AF4B4FF00002404641F412
:10158000401108BF4FF0060BA7EE878AFEF7DCFD7F
:101590009FA3D3E90023FEF78FFF064618EE100A3B
:1015A0000F46FEF731FF02460B4630463946FEF73E
:1015B000CDFDFFF71BFA07EE900AB8EEE77ADFEDF4
:1015C0009E7AB6EE008AA7EE278A8246DFED9B7AE6
:1015D000BDEEC88AF8EEC86A67EEE67ADFED986A73
:1015E000E7EE267A17EE900AFEF70EFF02460B464C
:1015F00006460F46FEF760FF324641EC1A0B3B46AB
:1016000030463946FEF7A2FD8E4B41EC1B0B002203
:1016100051EC1A0BFFF77AF88B4B0022FEF796FD80
:1016200002460B4651EC1A0BFFF770F8874B00226D
:10163000FEF78CFD02460B4651EC1A0BFFF766F8DD
:10164000324641EC1A0B3B4600204FF08041FEF73A
:101650007BFD02460B4651EC1A0BFEF777FD024666
:101660000B4651EC1B0BFFF751F8794B0022FEF7AC
:101670006DFD18EE103A03F2FF3633050022FEF737
:101680001BFF06460F4602460B4640464946FFF7FB
:1016900085F9002840F0A680CDE908670AF16303C8
:1016A000C72B069B34BF04260526190523D55AA34C
:1016B000D3E9002340464946FFF784F9002800F0AB
:1016C0009C8057A3D3E9002340464946FFF766F9BB
:1016D000002800F09280069BDA45B8BFABEB0A0BFE
:1016E00043F480634FF00006B4BF0BF1FF3B4FF0B3
:1016F000000B0693B246079BB34288BF9F1B069B15
:1017000098BF002713F002030B9302D0002E18BFDE
:101710000027BAF1000F07D040464946DDE908230B
:10172000FEF7F4FF8046894651EC190B0022002396
:10173000FFF734F910B109F100439946069B0A9A64
:10174000CDF808B023F40063CDE90373CDE9008937
:1017500018EE900A2B462146FFF712FD0746002E91
:1017600037D0069B13F0200F00F10109024618EE56
:10177000907A14BF452065202B462146B8470523A3
:10178000059300220A238AEAEA70CDE90232A0EB2F
:10179000EA704FEADA73013E019300902B4618EE8F
:1017A000900A04964A462146FFF74DFC0B9B0746DC
:1017B0007BB10A9BA0EB0309C8460A9B03EB080216
:1017C000079B434546D807990A9B0B44494528BFC8
:1017D0001F4638460DB0BDEC088BBDE8F08F59ECC4
:1017E000198BB4E6184B002230463946FEF78EFFBF
:1017F0000AF1FF3ACDE9080150E7BBF1000F3FF4D1
:101800007AAF0B9B002B3FF476AF0BF1FF3B72E7F7
:1018100000000060A787D23F000000E0E2361A3FD8
:101820000000000080842E41FFFFEF7F9B209A3E46
:101830004451343E0000F83F789A54401872313FCA
:101840008E5D134000002C40000024400000184032
:101850000000F03F18EE906A2B4621462020B0474A
:1018600008F10108A9E700BF2DE9F04F91B0002968
:101870000A93C74B1A9E904614BF8146994600258D
:101880000A9B187858B945452CBF08F1FF322A4603
:1018900043460020C847284611B0BDE8F08F0A9B98
:1018A000252803F101030A9306D02A466C1C4346FF
:1018B0000B91C8472546B7E1002206E02D2B14D036
:1018C000302B0CD142F001020A900A9810F8013B2B
:1018D0002B2B0DD0F2D8202B0DD0232B0ED0A3F123
:1018E0003004092C28D8002710E042F00202EBE770
:1018F00042F00402E8E742F00802E5E742F0100295
:10190000E2E70A2404FB0737303F0A900A9810F8F0
:10191000013BA3F13004092CF3D90A9B1B782E2B31
:1019200067D10A9B581C5B78A3F13004092C42F460
:10193000806255D8002411E02A2B08D156F8047B88
:101940000A90002FBCBF42F002027F42E5E7002769
:10195000E3E70A2000FB0434303C604684461CF870
:10196000013BA3F1300EBEF1090FF2D9034613F883
:1019700001CBBCF16C0F48D03ED8BCF1680F4DD004
:10198000BCF16A0F55D0034613F8010B0A9378286F
:101990008BD8572850D8452805D086D9462800F03E
:1019A0003081472881D100F0DF03472B04BF00F0CE
:1019B000FD0042F40062452808BF42F02002CDE954
:1019C0000372073626F007060294F6E8022348461B
:1019D000CDE9002343462A460B91FFF769FD22E13A
:1019E0002A2B07D156F8044B0A9824EAE4740230F3
:1019F000BCE70A980024B9E7BCF1740F02D0BCF12F
:101A00007A0FC0D142F48072BEE790F801C0BCF1F9
:101A10006C0FF7D142F44072831CB5E790F801C017
:101A2000BCF1680F02D042F08002ADE742F0C00284
:101A3000F2E742F40072A7E7A0F15803202B3FF62B
:101A400034AF0FF2080C5CF823F000BFD11A000885
:101A5000AB180008AB180008AB180008AB1800085A
:101A6000AB180008AB180008AB180008AB1800084A
:101A7000AB180008D11A00082D1C0008D11A000864
:101A8000A7190008071C0008A7190008AB180008D0
:101A9000D11A0008AB180008AB180008AB180008F2
:101AA000AB180008AB180008D11A00087D1D00080B
:101AB000AB180008AB180008A91C0008AB180008F8
:101AC000D11A0008AB180008AB180008D11A00089A
:101AD000782800F06981582800F064816F2800F0B0
:101AE0006581622800F06481692822F010024FF0BD
:101AF0000A0303D0642801D022F00C0212F4806F94
:101B000018BF22F00102692802F4007C01D0642889
:101B100044D1BCF1000F23D0073626F007008246DF
:101B200040685AF8086B049300230593C30F02938F
:101B3000002E034673F10000CDE907720694324689
:101B400002DA724263EB4303CDE900234846434681
:101B50002A460B91FFF7B8FA0B99054656468FE6D1
:101B6000D00506F1040A0CD53068CDE90472CDE940
:101B7000023400284FEAD0730193B8BF404200906E
:101B800028E012F0400F306804D0C0B2EDE700BF8B
:101B9000A50E0008160648BF00B2E6E7BCF1000F2C
:101BA0000CD0CDE907720022CDE90432073626F0C9
:101BB000070A06940292FAE80223C5E7D00506F167
:101BC000040A0ED5CDE90472CDE90234CDF804C083
:101BD0003368009343462A4648460B91FFF733FA91
:101BE000BAE712F0400F306807D0C0B2CDE9023436
:101BF0000023CDE904720193C1E7160648BF80B205
:101C0000F4E742F02002CDE90372073626F007061A
:101C10000294F6E802234846CDE9002343462A46CB
:101C20000B91FFF7ADFA05460B9929E612F0020475
:101C300026D04FF0010A56F8040B0B9143462A4672
:101C4000C0B2C84705F1010B0B995CB354465A4624
:101C500020E00B9143462020C8470B990AEB050270
:101C60000AF1010A5745F4D8002F07F1FF3308BFE6
:101C7000002307F1010A1D4408BF4FF0020ADAE70A
:101C8000A246EBE70B9143462020551CC8470B9911
:101C900001342A46BC42F5D3A7EB0A03574538BFA7
:101CA00000239B445D46EBE5334653F8046B0B93EE
:101CB000404B002E08BF1E46002C14BF23464FF099
:101CC000FF333344B3469BF8000008B19B4511D164
:101CD00012F48063ABEB060B0C9302D0A34528BF34
:101CE000A34612F002030D931CD1ABEB05032A4669
:101CF0000E930AE00BF1010BE5E70F91434620201C
:101D000002F1010AC8470F9952460E9B1344BB4289
:101D1000F3D3A7EB0B035F4538BF00230BF1010B97
:101D20001D449B44A5EB060A05E01C460E91434664
:101D30002A46C8470E990AEB060516F8010B28B18A
:101D40000C9B002BF2D0631E002CEED10D9B9BB19F
:101D50002A46ABEB050406E00C9143462020561CB6
:101D6000C8470C9932461319BB42F5D3A7EB0B03B6
:101D70005F4538BF00231D440B9E81E542F02102E0
:101D80000823CDE90343059200231022CDE9013257
:101D900056F8043B00932A46434648460B91FFF70A
:101DA00052F940E742F020021023A5E60823A3E6FB
:101DB0000223A1E6EF5800080FB41FB506AA02A936
:101DC00052F8043B0392009204484FF0FF32FFF7B1
:101DD0004BFD05B05DF804EB04B0704771110008CD
:101DE0000EB40FB505AA014652F8043B03920092C7
:101DF00004484FF0FF32FFF737FD04B05DF804EB05
:101E000003B070479D0E0008064B0748E02283F898
:101E10002220C0210023C2180133252B82F8001391
:101E2000F9D1704700ED00E000E100E00E4A08B58E
:101E3000D2F8883043F47003C2F888304FF0804203
:101E4000D36843F08003D360084B5A6922F47022B0
:101E500042F480325A619A689207FCD5FFF7D4FFAA
:101E6000BDE8084000F02AB800ED00E000000240A4
:101E7000002103E00B4B5B58435004310A480B4BE5
:101E800042189A42F6D30A4A02E0002342F8043B81
:101E9000084B9A42F9D3FFF7C9FF03F029F802F083
:101EA000F1FFFEE724600008000000202405002068
:101EB0002805002094070020FEE7000008B5012057
:101EC00000F0B8F90B4B984213D90B4A0133B0FB21
:101ED000F3F31370094A4FF47A73B0FBF3F0084B35
:101EE0000138E021586082F8231000229A6007220E
:101EF0001A6008BD3F420F004405002000ED00E0DD
:101F000010E000E030B5094B09491B784D6863B11A
:101F10008A685843002314468A689442FBD098BFCD
:101F20005B1923449B1A8342F5D330BD440500203E
:101F300010E000E04FF47A735843FFF7E3BF00006E
:101F4000012310B58B40062A00F28580DFE802F0FD
:101F5000040F1C293849660002681A43026082682F
:101F60001A438260C26822EA0303C3600BE002687E
:101F70001A43026082681A438260C2681A43C260D0
:101F800002691343036110BD02681A43026082684C
:101F90001A438260C2681A43C260026922EA0303DC
:101FA000F0E7026822EA03020260826822EA030282
:101FB0008260426822EA03024260826913430EE0B3
:101FC000026822EA03020260826822EA0302826057
:101FD000426822EA03024260826922EA03038361C3
:101FE000D1E7204CA0426FEA03020ED107290CD999
:101FF00081691140816181681140816001680B43F2
:10200000036003691A400261BDE701681140016085
:1020100081680A40826042681A43CDE7114CA042B1
:102020006FEA03020AD1072908D983691340836143
:1020300083681340836003681340E1E7016811403F
:10204000016081681140816041680B43436083698E
:102050001A40826197E702681A430260826822EAA6
:1020600003027EE700FC0140C26A4900032303FA31
:1020700001F11140C162704770B515460C46FFF77B
:10208000F3FF6100836A03228A4023EA020305FA10
:1020900001F11943816270BDC26A0323490003FA4A
:1020A00001F1114214BF012000207047072930B50B
:1020B00002D9164CA04220D0154CA04205D18C1F4D
:1020C000E4B2012C1AD80631C9B2002B01F0030486
:1020D00014BF04230023002A43EA0403026C01F422
:1020E0007F7114BF082500250F248C402B4322EA62
:1020F000040203FA01F11143016430BDA1F10C05A2
:10210000EDB2012D98BF2146DFE700BF00FC014082
:1021100000F00140072910B510D90D4B083998423D
:102120000BBF01EB4101890007230F238B408A403D
:10213000C16B21EA03031A43C26310BD836B89009C
:102140000F248C4023EA04038A401A438263F4E795
:1021500000FC0140274B1B6810B59C0706D1264A9E
:10216000536823F4700343F480135360234A1369C4
:1021700043F004031361204B1A6881B122F020025E
:1021800002281A600ED81A6822F003021043186061
:1021900000292BD01A4B04225A6030BF10BD42F0E8
:1021A0002002EDE7174B1A6892060AD5164C174A1B
:1021B0009C619A611A6822F020021A6000229C61D8
:1021C0009A61134A13685C045CBF43F48043136054
:1021D000094B1A6842F003021A605A6803280CBFC0
:1021E00042F0807222F080725A60D1E740BF20BF77
:1021F00020BFD3E7102000100018004000ED00E0E1
:1022000000E100E000000240BFAE9D8C16151413E3
:10221000308000400121FFF79DBF0000044A136891
:1022200018B143F080031360704723F08003FAE78E
:102230000C8000404FF0804301461A6802F4E042EF
:10224000B2F5A04F20D015D8B2F5805F1ED0B2F500
:10225000005F1B4808BF4FF4004002291BD0032930
:1022600023D0012905D14FF080431B68C3F303231A
:10227000D8407047B2F5C04F0BD0114B1148B2F5A2
:10228000E04F18BF1846E8E70F48E6E74FF4FA407A
:10229000E3E70E48E1E74FF080421368C3F30323FE
:1022A000D8401368C3F34213E2E74FF0804213684B
:1022B000C3F30323D8401368C3F3C233D8E700BF86
:1022C00000366E01006CDC020048E80100093D00A8
:1022D0004FF08043986800F4C03070474FF080435F
:1022E000986800F4C04070474FF08043986800F44D
:1022F000C05070474FF08043986800F4C06070474A
:102300004FF08043586800F00200704741284AD8D7
:10231000DFE810F011020702FD01E401D201B9016A
:10232000710167015D01530149013F0135010D0153
:102330000301D600EA00E000CC004900C200B8006A
:10234000AE00A30099008F0085006B00610057006C
:102350004D004200170121012B01490049004900AD
:102360004900490049004900490049004900490025
:10237000490049002E0225021B023802950149003E
:102380004900490049004900490049004900490005
:102390004900490042024C024FF08043DA6819B10B
:1023A00042F48012DA60704722F48012FAE74FF0AC
:1023B0008043DA6811B142F40022F3E722F40022EC
:1023C000F0E74FF08043DA6811B142F48022E9E788
:1023D00022F48022E6E74FF08043DA6811B142F43C
:1023E0000032DFE722F40032DCE74FF08043DA68A6
:1023F00079B142F48032DA604FF080439A6A02F099
:102400003F023F2AFAD15A6931B142F004025A61BF
:10241000704722F48032EEE722F00402F7E74FF033
:102420008043DA6811B142F40042BBE722F4004273
:10243000B8E74FF08043DA6811B142F48042B1E767
:1024400022F48042AEE74FF08043DA6811B142F4E3
:102450000052A7E722F40052A4E74FF080431A6924
:1024600019B142F020021A61704722F02002FAE707
:102470004FF08043DA6811B142F4805292E722F4BF
:1024800080528FE74FF08043DA6811B142F4006266
:1024900088E722F4006285E74FF08043DA6811B1E3
:1024A00042F480627EE722F480627BE74FF0804353
:1024B000DA6811B142F4807274E722F4807271E735
:1024C0004FF08043DA6811B142F020026AE722F04F
:1024D000200267E74FF08043DA6811B142F08002D2
:1024E00060E722F080025DE74FF08043DA6871B167
:1024F00042F04002DA604FF080439A6A02F03F02F5
:102500003F2AFAD15A6929B142F008027FE722F046
:102510004002EFE722F0080279E74FF08043DA68E3
:1025200011B142F010023DE722F010023AE74FF0FD
:102530008043DA6811B142F0007233E722F0007292
:1025400030E74FF08043DA6811B142F0807229E73A
:1025500022F0807226E74FF08043DA6811B142F42E
:1025600000021FE722F400021CE74FF08043DA6804
:1025700011B142F4800215E722F4800212E74FF015
:102580008043DA6811B142F008020BE722F008023A
:1025900008E74FF08043DA6811B142F0040201E726
:1025A00022F00402FEE64FF08043DA6811B142F0F7
:1025B0000202F7E622F00202F4E64FF08043DA6806
:1025C00011B142F00102EDE622F00102EAE64FF01D
:1025D0008043DA6811B142F00062E3E622F0006263
:1025E000E0E64FF08043DA6811B142F08062D9E64C
:1025F00022F08062D6E64FF080431A6979B142F446
:1026000000721A619A6A02F03F023F2AFAD15A69AF
:1026100042F010025A611A6942F0100223E722F0D8
:1026200010021A619A6A02F03F023F2AFAD15A69EF
:1026300022F010025A611A6922F4007213E74FF077
:1026400080431A6979B142F480521A619A6A02F0A1
:102650003F023F2AFAD15A6942F020025A611A69B0
:1026600042F40062FFE622F400621A619A6A02F004
:102670003F023F2AFAD15A6922F020025A611A69B0
:1026800022F48052EFE64FF080431A6971B142F0B4
:1026900008021A614FF080439A6A02F03F023F2A13
:1026A000FAD15A6929B142F00102B0E622F00802DB
:1026B000EFE722F00102AAE64FF080431A6931B138
:1026C00042F004021A611A6942F04002CBE622F09D
:1026D00004021A611A6922F04002C4E64FF08043F6
:1026E0001A6971B142F002021A614FF080439A6A8E
:1026F00002F03F023F2AFAD15A6929B142F00202A0
:1027000085E622F00202EFE722F002027FE64FF0B8
:102710008043DA6811B142F0805243E622F08052E1
:1027200040E64FF080431A6911B142F001029AE687
:1027300022F0010297E64FF080431A6911B142F08E
:10274000800290E622F080028DE64FF080431A6905
:1027500011B142F4807286E622F4807283E64FF073
:102760008043DA6809B11A431CE622F0804219E678
:102770004FF08043DA6811B142F0005212E622F0C5
:1027800000520FE64FF080431A6911B142F48062A3
:1027900069E622F4806266E64FF08043DA6811B1A0
:1027A00042F40012FEE522F40012FBE54FF08043F4
:1027B000DA6811B142F00042F4E522F00042F1E59E
:1027C00010B50C4605280ED8DFE800F003151F28C9
:1027D000335E364A3649136834B123F02003136060
:1027E0008B685B07FCD510BD43F0200313608B683A
:1027F0005C07FCD4F7E72F4A136819B123F40043B0
:102800001360F0E743F40043FAE72A4A136811B172
:1028100023F4C043F4E743F4C043F1E7234A1368C9
:1028200023F0180311B143F00803E9E743F0100364
:10283000E6E701210E20FFF769FD1F4BD3F80421C5
:10284000CCB190060BD4D3F8042142F02002C3F897
:102850000421D3F8042122F08002C3F80421164B8E
:10286000D3F8042142F00402C3F80421D3F808216C
:102870009107FBD5B7E722F00402C3F80421D3F88F
:1028800008219207FBD4AEE7084A0949136834B11E
:1028900023F0400313608B68002BFCDAA3E743F0BE
:1028A000400313608B68002BFCDB9CE71880004022
:1028B0000082004008800040009000403F281ED861
:1028C0002F280DD90123303803FA00F04FF0804350
:1028D000DA6911B91043D861704722EA0000FAE7BB
:1028E000A0F12003DBB2022B98BF0D20012303FAD5
:1028F00000F04FF080439A6911B910439861704716
:1029000022EA0000FAE708B500210320FFF7FEFCE9
:1029100001210320FFF7D2FFBDE80840002103207A
:10292000FFF7CCBF034940F6FF53CA6A33EA0202FD
:10293000FBD1704700E0004008B5FFF7F3FF054BFF
:102940001A6818B142F080521A6008BD22F0805215
:10295000FAE700BF00E0004008B5FFF7E3FF054BD2
:102960001A6818B142F080721A6008BD22F08072B5
:10297000FAE700BF00E00040012808B50AD8FFF7D9
:10298000D1FF054B1A6801280CBF42F0007222F0FB
:1029900000721A6008BD00BF00E00040F8B50546AF
:1029A00000285FD031480346476BB9B25E6C5A6C61
:1029B000B242FBD19C6C9A6CA242FBD15A6B92B290
:1029C0009142F1D10029EFD0FFF79AFCBFB207EE98
:1029D000907AB8EEE77AF6EE007A002843D1DFED80
:1029E000246AC6F3021306F00F0203EB830302EB23
:1029F0004303EB71C6F3C223C6F3C31203EB830395
:102A000002EB4303AB71C6F3814303EB8303C6F3CD
:102A1000833606EB4306C4F3011304F00F0203EB05
:102A2000830302EB43032B71C4F380239A00134406
:102A3000C4F3831202EB4303E7EE267AEB70C4F390
:102A4000C223AB70C4F3834303EB8303C4F3833427
:102A5000FCEEE77A04EB430404F5FA64C5ED027A70
:102A60006E712C80F8BDDFED036ABAE700E000402C
:102A70000024F4410000FA4180280AD0402808D000
:102A8000431EDBB21F2B0DD8074A22FA03F3DB07E4
:102A900008D5012906D8054B9A6A0CBF104322EAD3
:102AA00000009862704700BF8B80008000E000400B
:102AB00008B518B1FFF736FF014B986108BD00BF9C
:102AC00000E0004083690B4214BF012000207047E2
:102AD00083699B06FCD4016070478369DB06FCD4E4
:102AE0000068C0B270474FF4E13303606023838015
:102AF000002383714FF4401383607047036B19B157
:102B000043F001030363704723F00103FAE7000079
:102B1000036B23F0010370B50363C36A23F0100352
:102B2000C36200238363464B984204460D463ED160
:102B3000FFF7CEFBC00B0138022850D8414B53F8A9
:102B400020002B68B0EB031F4FEA031175D36BB164
:102B5000B0FBF1F601FB1600C200B2FBF3F202F08B
:102B6000010303EB52039BB243EA06431A0C03F042
:102B70003F036262A362E36A2A7923F0600313438E
:102B8000E362E36AAA7923F008031343E362EB7A72
:102B90008BB3E36A43F01003E3626B79012B2ED011
:102BA000022B42D09BBBE36A23F002032EE0B0F17C
:102BB000402F04D1FFF792FBC0F34F30BBE7224B0D
:102BC000984204D1FFF790FBC0F3CF20B3E71F4B2F
:102BD00098420ED1FFF78EFBC0F34F20ABE7184BA6
:102BE0009C4202D0B4F1402F03D10220FFF722FB18
:102BF000A7E70320FAE7E36A23F01003CCE7E36AD0
:102C000043F00203E362E36A23F00403E362236B0D
:102C1000AA7A23F0300313432363236B2A8923F416
:102C2000404313432363002070BDE36A43F0020373
:102C3000E362E36A43F00403E8E74FF0FF30F3E7B1
:102C4000003000401857000800000140001001400B
:102C5000FFF770B910B501F085FA044601F018FBD2
:102C6000064B1B68011B201A03B910BD1A688A4263
:102C70008CBF121800221A601B69F5E74805002076
:102C8000054B1A680AB10021117218600123026114
:102C90000372006801F016BA480500200023C0E95D
:102CA0000033C0E9031303727047000070B5044697
:102CB00001F006FB64B11A4D29680B4663B96268DE
:102CC0002260237261B901F0E3FA2046FFF7D8FFD2
:102CD000BDE8704001F0F6BA9C42F9D01B69EDE7FF
:102CE00001F0E2FA22682B680244226019688A42E5
:102CF000064605D2FFF7AEFF2068801B2060E4E7A0
:102D00001969186910B91C612061E1E708688242FD
:102D100002D90B460969F4E71C612161D8E700BFBD
:102D20004805002070B5164D044601F0C9FA2B681D
:102D300003B11CB9BDE8704001F0C4BAA34215D17B
:102D4000237A266983B16EB1002323722E60FFF7C8
:102D500081FF2B68012218681A7201F0B3F9002371
:102D60002372E7E701F0F4F92E60F8E71A461B69D1
:102D7000002BF4D09C42F9D123691361EFE700BF27
:102D80004805002038B504460D46FFF7CBFFC4E9DF
:102D9000005538BD08B501F0EBF9034AD2E902321B
:102DA000C01842EB010108BD4805002038B50446B3
:102DB0000D46FFF7EFFF001B61EB050138BD012059
:102DC00070470000034B1B6813B15B6803B11847E1
:102DD000704700BF5C050020034B1B6813B1DB6824
:102DE00003B11847704700BF5C050020002000F0C9
:102DF00001BE000010B5134C206000F029FF002038
:102E000000F0F8FD012000F0A2FE0021084601F0CC
:102E10009DF80421002000F06BFF0023194618469E
:102E20001A4600F0E5FE08490848FFF737FF084951
:102E30000848FFF733FF08490848FFF72FFF002035
:102E4000207110BD5C050020C52D0008040600207F
:102E5000D92D000840070020DD2F000818070020AA
:102E600008B500F03FFDC31EDBB2022B9ABFC0F1D4
:102E70000600C0B2002008BD00F0FEBE08B501F09B
:102E800072F800B208BD07B58DF807000DF1070014
:102E900000F055FD03B05DF804FB01F033BB01F019
:102EA000FDBA000038B50C46002340F201211A4655
:102EB0000546084600F09CFE00F014FF0B4B01286D
:102EC0000A480CBFDC731C7200F0CCFF2146284678
:102ED000002200F0BBFD064B06489968FFF752FF41
:102EE000BDE838400348FFF7E1BE00BFC805002039
:102EF0005C0500200406002008B54FF0040000F037
:102F000067FDBDE808400220FFF7A2BE00F0DABD71
:102F100037B5184B93F838500F2805F10D05EDB271
:102F200022D8072822D8032822D8012894BF0024B9
:102F3000012400234FF4C0711A46084600F058FEE1
:102F4000002300930A222946204600F0E1FF00F00A
:102F5000D5FD09484FF4FA61FFF714FF064803B0A6
:102F6000BDE83040FFF7A2BE0424E2E70324E0E717
:102F70000224DEE7C80500201807002010B50C4623
:102F80002DED028B08EE102A00F076FE204601F0AF
:102F900011FB00F0BFFDDFED0A7A0A48B8EEC88ADF
:102FA00028EE278AFCEEC87A17EE901AFFF7EAFEA1
:102FB000BDEC028B0348BDE81040FFF777BE00BFB1
:102FC00000007A444007002001F044BA01F072BAD0
:102FD00008B501F0B3F9033008BD000010B50020BA
:102FE00000F086FC044B1B682BB19B691BB1BDE84C
:102FF00010400020184710BD5C05002010B590B1AE
:103000000A4B012219461C68A04206D39C68A042C4
:1030100003D201EBC202107910BD0132162A03F16E
:103020000803F0D1FEE71F20F6E700BF285700088D
:103030000128074804D1074BC173197000F012BF73
:10304000C379012B03D1034B01721970F6E7704766
:10305000C805002000000020002340F2422110B5E6
:103060001A460446084600F0C3FD34B1094821461B
:10307000FFF788FE0748FFF719FE074B1A7B2AB1B6
:103080006FF07F40BDE8104000F0EABC1869800195
:10309000F8E700BF400700205C0500200023022164
:1030A00010B51A460446084600F0A2FD34B109489E
:1030B0002146FFF767FE0748FFF7F8FD064B1A7B2E
:1030C0002AB16FF07F40BDE8104000F0DFBC186906
:1030D0008001F8E7400700205C050020F7B5504C60
:1030E0002379002B00F08A804E4D01F0E9F800238F
:1030F000237101F0E7F82B88D9070AD54A48FFF772
:1031000011FE012000F0F4FB236813B11B6803B12A
:1031100098472B889A0731D54448FFF703FE267B52
:1031200096B9012000F0E4FB314640F6021001F0B0
:10313000B5F940F6441001F0E5F940F00200C1B2E3
:1031400040F6441001F0AAF9394E3A48FF220DF139
:10315000070100F039FF304600F050FF23686BB1E3
:103160009F685FB12B885B0608D496F90D3096F9FD
:103170000C209DF807102F481A44B8472B88580692
:1031800009D5237B13B9012000F0B2FB236813B1EA
:103190001B6903B198472B8819060DD52648FFF700
:1031A000C1FD012000F0A4FB23682BB19B691BB17A
:1031B0002888C0F3002098472B889A050ED500F088
:1031C00091FB04281CD11848FFF7ACFD012000F04A
:1031D0008FFB236813B15B6803B198472B889B066C
:1031E0000CD51248FFF79EFD237B13B9012000F098
:1031F0007FFB236813B1DB6803B1984703B0F0BDD0
:1032000000F070FB0528E9D10848FFF78BFD01208D
:1032100000F06EFB2368002BE0D0DB68DCE700BF2A
:103220005C050020C40500200406002040070020A3
:103230002C07002018060020180700200D4B10B5A1
:1032400004461875587500F017F85CB134214FF436
:10325000E86001F023F94421BDE8104040F24170DC
:1032600001F01CB914214FF4E86001F017F9242192
:10327000F2E700BF5C05002008B5012000F022FD48
:10328000054B187D5A7D824204D05875BDE8084030
:10329000FFF7D4BF08BD00BF5C050020012808B5BA
:1032A00006D0002000F00EFD034B00225A7508BD29
:1032B000BDE80840FFF7E0BF5C050020F8B50D460B
:1032C00017461C46FFF7EAFF284600F0D5FC002011
:1032D000FFF7C2FE0120FFF7BBFCFFF75BFD0025F7
:1032E000064630460021FFF761FDA94208BFA04213
:1032F00004D30124FFF700FE2046F8BD00F033FEA2
:1033000000B28742EDDA0024F4E737B5FFF7B4FFE7
:10331000002000F0A5FB002425460120FFF798FCC3
:1033200000F021FE00F00103A3400134202C45EA07
:103330000305F2D101F05CF928440190FFF7DCFDB0
:10334000019803B030BD00000A2838B50DD8084BED
:1033500003EBC000D0E92C4501208840FDF742F87E
:1033600022462B46FDF7D2F938BD00240025F3E7AD
:1033700028570008000000002DE9F04F85B01546E1
:103380009DF84C2000929DF85C209DF84470DFF879
:103390000092BDF8404089F80C20002A18BF002494
:1033A000734ABDF83C80002F0E469DF8481008BFB8
:1033B000FF2111708246934620B101286DD005B0DF
:1033C000BDE8F08FDFF8C0B100F0A9FB0B23304659
:1033D0008BF834308BF828A0CBF82C50FFF70EFE7A
:1033E000634A8BF8350041F60403ABF804301378D8
:1033F0008BF80830009B8BF800A0002B14BFF22341
:10340000012387F001078BF809304FEAC808012330
:103410008BF80A308BF80770ABF802808BF806A0A7
:10342000FFF7E4FC9BF82800003818BF0120FFF7E5
:1034300035FF0BF1280000F0BBFC584600F012FDF0
:103440004C4A1068516802AB03C302A800F077FA37
:1034500040F2FF1000F0A0FA2846FCF7B3FF024646
:103460000B4600204449FDF751F9444B0022FDF77B
:1034700023F8064620460F46FCF7B4FF02460B46EB
:1034800030463946FDF718F83D4B0022FDF714F899
:10349000FDF7D4FAC9F8100091E70020019300F07D
:1034A0003EFBE0B200F047FB364A374C019B84F804
:1034B00028A032445FFA85F992F8100184F8389018
:1034C00084F8390084F83A3096BB0B3D012D33D88F
:1034D0000123A9F10509994584F83BA0237039D847
:1034E000B8F10B0F36D80C23A3819BF80030E3739F
:1034F000009B23749DF858306374A773FFF7BCFEDC
:10350000224800F055FC204800F0ACFC637C012B05
:1035100040F2367021D100F0F5FF00F0FB0140F2DF
:10352000367000F0BBFF1A4A4FF6FF73136146E78F
:10353000012E01D10C2DCBD04946FFF705FF0AA380
:10354000D3E90023FDF73EFAB0F1000A18BF4FF0AF
:10355000010ABDE7A4F80C80C7E700F0D3FF40F0F4
:103560000400C1B2DBE700BF000000A047613040AB
:1035700000000020305800080000F03F000020400C
:1035800000408F4028570008C8050020F0050020A3
:103590005C050020000000002DE9F74F0C9EBDF8EF
:1035A00038709DF83C809DF840A0894693460546BA
:1035B00048B1012845D040F6890000F0A3FF40F053
:1035C0000400C1B283E0544C0B2284F82800184652
:1035D00084F83420E662FFF711FD41F60403BAF1E6
:1035E000000FA38014BFF22301236372FF000123A5
:1035F00088F00108A37284F83500C4F830B0257053
:103600006780A57184F80780FFF7F0FB94F8280025
:10361000003818BF0120FFF741FE04F1280000F038
:10362000C7FB204600F01EFC3C4A106851686B4600
:1036300003C3684600F083F940F2FF1000F0ACF9D4
:10364000B9E7374A344C1A4484F828005FFA86FBFD
:1036500092F810019DF8342084F838B084F83900CD
:1036600084F83A20002B3FD10B3E012E40D8012395
:10367000ABF1050B9B4584F83B50237044D80B2FCE
:1036800042D80C23A381274B84F80E801B78E37368
:103690009DF84C30637484F810A0FFF7A7FB94F8F2
:1036A0002800003818BF0120FFF7F8FD1E4800F081
:1036B0007FFB194800F0D6FB94F83930062B7FF4D5
:1036C0007AAF40F6890000F01DFF00F0FB0140F6E4
:1036D000890000F0E3FE484600F06CFF149A134B9B
:1036E0009A6003B0BDE8F08F012B01D10C2EBED043
:1036F0005946FFF729FE06A3D3E90023FDF762F937
:10370000051E18BF0125B2E7A781BCE7AFF3008013
:10371000000000A047613040C80500203058000874
:103720002857000800000020F00500205C0500205C
:103730002DE9F74F884628B101283DD0002003B07D
:10374000BDE8F08F5A4A9FED5B6A5179538803EBCD
:10375000D10307EE903AD379F8EEE77A002B07EE23
:10376000108AF7EE006A08BFF0EE466A77EEA67A96
:10377000B8EEC77A537A77EE877A022BB0EE007AEA
:1037800018BFB0EE467A77EE877AB2EE007A67EE2F
:10379000877A92ED0B7AB8EE477AC7EE876ADFED4B
:1037A000467A66EEA77A17EE900AFCF72DFE01F036
:1037B000A3FEFDF743F9C2E7DFF8F4A09AF838B0AA
:1037C0009AF839005946FFF7BFFDBAF80C3007EEFA
:1037D000903AF8EEE77AB1EE017A77EE877A04460E
:1037E0000D4617EE900AFCF70FFE22462B46FCF71B
:1037F00063FE9AF80E300646CBEB48089AF81000A4
:10380000012B08F1070808EB80080CBF14200020EA
:10381000C0EB88000F46FCF7E5FD9AF83B30002B23
:10382000804614BF02200020ABEB000080008946D8
:10383000FCF7D8FD02460B4640464946FCF766FFBA
:1038400001F062FD02469AF83A0000F003000B46D0
:103850000430CDE90023FCF7C5FDDDE90023FCF7CA
:103860002BFE0022002380468946FDF7B5F818B9E3
:103870004FF000084FF00009104B00224046494627
:10388000FCF764FC22462B46FCF716FE32463B460C
:10389000FCF75CFC04A3D3E90023FCF757FC01F020
:1038A000AFFD86E7AFF30080000000E0CEF7EF3F0A
:1038B000C80500200000000000007A4400002040FD
:1038C00008B5064B01221A7100F0A7F9044B1880C5
:1038D000BDE808404FF6FF7000F0D0BB5C0500204B
:1038E000C4050020014B1878704700BF7405002004
:1038F000014B1870704700BF7405002010B50C4CC8
:10390000237813B12378062B03D100F045FD00F096
:1039100057FE2378052B05D100F052FEBDE810407C
:1039200000F02EBD2378042BF8D100F051FEF5E70E
:10393000740500200A460146002000F0EFBD08B5DE
:1039400001784FF4E86000F0A9FD002008BD0000F8
:1039500007B5074B5B7840BAADF804002BB90222DB
:1039600001A940F2BC6000F075FD03B05DF804FBF6
:103970007405002007B5074B5B7840BAADF804002A
:103980002BB9022201A940F2BE6000F063FD03B032
:103990005DF804FB7405002010B50C4B5B78044601
:1039A0009BB94FF4D76000F0ADFDC4F3002100F0E7
:1039B000FE0001434FF4D76000F070FDE1B240F229
:1039C000B960BDE8104000F069BD10BD740500206D
:1039D00007B58DF8040000F0FBFD012201A9842049
:1039E00000F0F2FC024B00221A7003B05DF804FBF9
:1039F0007405002007B501228DF807000DF10701BD
:103A0000802000F0E1FC9DF80720044B22B9012240
:103A10001A7003B05DF804FB0222F9E77405002078
:103A200007B5094B8DF8060004221A70030C8DF8B7
:103A300004300322030A01A983208DF8053000F029
:103A4000C3FC03B05DF804FB7405002010B51446F8
:103A5000FFF770FF2046BDE81040FFF7E1BF000010
:103A600007B5094B8DF8060005221A70030C8DF876
:103A700004300322030A01A982208DF8053000F0EA
:103A8000A3FC03B05DF804FB7405002013B50C4BD8
:103A900004460522962140F6AC001A7000F0FEFCA8
:103AA000230C8DF804300322230A01A982208DF80B
:103AB00005308DF8064000F087FC02B010BD00BF55
:103AC0007405002007B5030C8DF80030030A8DF84B
:103AD00001300B0C49BA8DF80200ADF80410062233
:103AE000694694208DF8033000F06EFC024B0622EC
:103AF0001A7003B05DF804FB74050020002208B5BD
:103B00001146C52000F060FC014B07221A7008BD69
:103B10007405002000221146D12000F055BC07B5E5
:103B200001228DF807000DF107019F2000F04CFCE9
:103B300003B05DF804FB07B501228DF807000DF115
:103B40000701A02000F040FC03B05DF804FB07B5BE
:103B500001228DF807000DF10701962000F034FCDA
:103B600003B05DF804FB0000134B984207B50BD976
:103B70004EF6E113ADF80430022201A9982000F0BE
:103B800023FC03B05DF804FB0C4B984202D94DF6C0
:103B9000D703EFE70A4B984202D94CF2C153E9E749
:103BA000084B984202D948F27513E3E7064B984256
:103BB000E2D946F66B73DDE700E9A43580F8A93257
:103BC0008044E52D000B6B1B40FC541907B58DF8A4
:103BD000062004228DF804008DF8051095200DEBC9
:103BE00002018DF8073000F0EFFB03B05DF804FB35
:103BF00007B552BAADF8042040BA082249BAADF868
:103C00000000ADF802105BBA69461046ADF8063008
:103C100000F0DAFB03B05DF804FB07B5022201A94E
:103C2000122000F0F3FB9DF804009DF8053043EAF4
:103C3000002003B05DF804FB07B501228DF80700F2
:103C40000DF107019D2000F0BFFB03B05DF804FB00
:103C500008B500F045FB00F073FB00F09DFB002071
:103C6000FFF7C8FE0120FFF7E7FF024B01221A70A1
:103C700008BD00BF7405002037B5114DAB78044670
:103C80001BB9FFF771FF0123AB702046FCF79AFBCD
:103C900009A3D3E90023FCF739FDFCF7CFFE04228A
:103CA00000BA01900DEB0201862000F08DFB03B0FD
:103CB00030BD00BFAFF30080000000008084EE3F05
:103CC0007405002007B5064B8DF8070058700122D7
:103CD0000DF107018A2000F077FB03B05DF804FBCB
:103CE00074050020014B5878704700BF7405002010
:103CF00037B5044600200D4600F05FFC012803465E
:103D000020D10F2C02464FF000010CBF06200420EA
:103D1000FFF75CFF6FF002008442B8BF04460E2C30
:103D2000A8BF0E24182140F6E70000F0B7FB0222DE
:103D300001A98E208DF804408DF8055000F044FB59
:103D400003B030BD40F6D80000F0DCFB40F01E00B0
:103D5000C1B240F6D80000F0A1FB134B187802283E
:103D600018D0032806D0012818D1034600220521C7
:103D7000032003E00221012300220846FFF726FF6B
:103D80006FF002008442B8BF0446162CA8BF162468
:103D90003821C8E7012300220321EFE70123002295
:103DA00007210420EAE700BF85050020000000008D
:103DB00013B5294A0446516810686B4603C3274B64
:103DC00020785B78834201D0FFF77CFF23781BB11A
:103DD000012B35D002B010BD6068FCF7F3FA024643
:103DE0000B4619A1D1E90001FCF790FC00221C4B05
:103DF000FCF762FBFCF722FE030C8DF80030030A8F
:103E00008DF80130237B8DF802008DF80330A06817
:103E1000637B8DF80430FCF7D5FA0DA3D3E90023BA
:103E2000FCF774FCFCF70AFE030C40BA8DF8053071
:103E3000ADF80600082269468B2000F0C5FAC9E7F4
:103E4000236900930422F6E70000000080847E418D
:103E5000000000008084EE3FB45800087405002084
:103E6000000040401FB5284A044651681068127A85
:103E700001AB03C31A70254B20785B78834201D0D5
:103E8000FFF720FF23781BB1012B31D004B010BD08
:103E9000637AF12B20D14FF6FF70FFF759FD48F2FE
:103EA0000500FFF767FD02236288A188ADF80610C0
:103EB00052BAE188ADF804208DF80B30227AA37A4B
:103EC0008DF80A20ADF808108DF80C30092201A9F0
:103ED0008C2000F079FAD9E7F22BE5D141F60F50AA
:103EE000FFF736FD41F22100FFF744FD0623DBE733
:103EF000A3895BBAADF80430E389ADF80630238AB4
:103F0000ADF808300622E2E7BC580008740500202E
:103F100013B5049C8DF80330230C8DF800008DF848
:103F200001108DF802208DF804300522230A69461D
:103F300088208DF805308DF8064000F045FA024BD8
:103F400007221A7002B010BD7405002007B50222C6
:103F50008DF804008DF805108F2001A900F034FAC7
:103F600003B05DF804FB07B5012201A9152000F09C
:103F70004DFA9DF804004042401003B05DF804FB88
:103F800037B504460D46022201A9132000F03EFA7F
:103F90000C4B5B78012B11D140F2047000F0B2FAA7
:103FA000C0F3C710012809D140F2027000F0AAFA4C
:103FB00020709DF805302B7003B030BD9DF80430A3
:103FC0002370F6E774050020F7B50D460646002479
:103FD0000DF10701284617468DF80740FFF7D0FF7F
:103FE0002A78BA4207D89DF80700314600F0BAFA9D
:103FF000204603B0F0BD0120FBE7000013B503220B
:10400000044601A9142000F001FA1B4A51782170DE
:1040100049B1012917D014220021204600F08CFF5D
:104020000F2323700DE09DF8043023719DF80530B7
:10403000A1605B425B10A3719DF806305B425B1090
:10404000637102B010BD9DF804309DF905105B420C
:104050005B1023739DF805300029B6BFA3F580736C
:104060009B089B1063739DF806305B425B10A37343
:1040700053682361E5E700BF7405002007B50222FD
:1040800040BAADF8040001A9104600F09DF903B054
:104090005DF804FB10B5094C23786BB9FEF733FCCF
:1040A00001210320FEF732F90120FEF745FC044B05
:1040B00002221A600123237010BD00BF7C0500207E
:1040C00000E100E070B5052886B038BF052003ACDC
:1040D00005462046FEF762FC94E807001A4C6B4642
:1040E00083E8070084E807000020FEF735FCFEF7B0
:1040F00007F90228284614BF4FF400464FF4FA4649
:10410000FCF760F9044630460D46FCF75BF90246C1
:104110000B4620462946FCF7CFF90C4B0022FCF752
:10412000F5FA01F079FAFCF7C1FCFEF7C1FC0120B9
:10413000FEF722FC0120FEF70FFC01211020FEF704
:104140009BFC06B070BD00BF5807002000408F40A8
:1041500008B50020FEF700FCBDE808400021102053
:10416000FEF78ABC014BD3E90001704768070020C5
:104170002DE9F04F89B005A8FEF710FC9DF8183026
:10418000BDF814109DF817009DF819C09DF81AE0AD
:104190003B4F00261A4600259DF81B300393002450
:1041A000CDE90056079B374E0293A1F5FA68A24667
:1041B000A34625B245451FFA84F917DB11F0030128
:1041C00000F1FF3059D0304D304E0024E1B2814231
:1041D00004F101042BDA2944DDE90078097B7143FD
:1041E0007F1848F10008CDE90078EFE7009B15B192
:1041F00019F0030F07D19B190093019B43EB0A03AE
:1042000001930134D5E7DB190093019B43EB0B03CA
:10421000F6E7DDE900782C5D74433F1948F10008AA
:10422000CDE90078CCB2844201F10101F1DB3C24FC
:10423000AEFB04454FF46161E1FB0C45039B134960
:10424000501EE41801FB00F1009B45F100056418C5
:10425000019945F100054FF47A70E21845EB010130
:10426000A2FB002300FB01330299B1FBF0F0101810
:1042700043F1000109B0BDE8F08F034D034ED1E7D3
:104280008033E1010085E201C5580008805101003A
:1042900038B5FFF76DFF034B04460D46C3E90045F3
:1042A00038BD00BF6807002008B5FFF761FF034A6B
:1042B000D2E90032C01A61EB020108BD6807002094
:1042C00072B6704762B67047044B9860DA6802F0C5
:1042D0001102012AFAD19868C0B2704700900040DC
:1042E00010B5134C4FF40073C4F80031072323605A
:1042F00002232361D4F80431802B0BD01420FDF766
:1043000001FE0023C4F80C311420FDF7FBFD01234E
:10431000C4F80C31064B074802225A60064B4FF492
:1043200000121A60BDE8104003220B21FDF7F2BE17
:104330000090004000FC014000E100E005207047D3
:104340000E4BD3F8042142F02002C3F80421D3F825
:10435000042122F08002C3F80421D3F8002142F0A6
:104360002002C3F80021D3F8042142F00102C3F86F
:104370000421D3F80821D205FBD4704700900040F7
:1043800008B50A20FDF7BEFD024AD2F80831DB0568
:10439000FBD408BD0090004038B572B6094C00252A
:1043A000C4F80C510A20FDF7ADFDC020FFF78CFFCB
:1043B0002846FFF789FF0123C4F80C31FFF7E0FF1F
:1043C00062B638BD00900040F8B50F4F0C46154658
:1043D0000646FFF793FA0023C7F80C313046FFF783
:1043E00073FF2544AC4208D10123842EC7F80C3159
:1043F00008D0BDE8F840FFF7C3BF14F8010BFFF782
:1044000063FFEFE7F8BD00BF0090004073B5104EAA
:10441000019015460C46FFF771FA0021C6F80C1101
:104420000198FFF751FF0846FFF74EFF2544AC42C5
:1044300007D10123C6F80C3102B0BDE87040FFF788
:104440009FBF0020FFF740FF04F8010BEFE700BF1C
:1044500000900040F8B5104E0C4615460746FFF791
:104460004DFA0023C6F80C310D20FFF72DFF380A56
:10447000FFF72AFFF8B2FFF727FF2544AC4206D129
:104480000123C6F80C31BDE8F840FFF779BF14F8F6
:10449000010BFFF719FFF1E70090004007B501227B
:1044A0008DF807100DF10701FFF7D4FF03B05DF899
:1044B00004FB0000F8B5124E154607460C46FFF700
:1044C0001DFA0021C6F80C111D20FFF7FDFE380A69
:1044D000FFF7FAFEF8B2FFF7F7FE0846FFF7F4FE23
:1044E0002544AC4206D10123C6F80C31BDE8F840A2
:1044F000FFF746BF0020FFF7E7FE04F8010BF0E7E7
:104500000090004007B501220DF10701FFF7D2FF2F
:104510009DF8070003B05DF804FB0000F8B51546F0
:1045200007460E46FFF7EAF90D4B0024C3F80C418D
:104530000E20FFF7C9FE3846FFF7C6FEADB2A3B2A4
:104540009D4207D8064B0122C3F80C21BDE8F84074
:10455000FFF716BF305DFFF7B7FE0134EFE700BF8E
:1045600000900040F8B515460E460746FFF7C6F91D
:104570000F4B0024C3F80C411E20FFF7A5FE384660
:10458000FFF7A2FE2046FFF79FFEADB2A3B29D4209
:1045900007D8074B0122C3F80C21BDE8F840FFF70C
:1045A000EFBE0020FFF790FE30550134EEE700BF6C
:1045B000009000400221FFF79BBB022070470000E3
:1045C000024803220A21FDF7BBBC00BF00F00140F6
:1045D000024804220A21FDF7B3BC00BF00F00140ED
:1045E00003289CBF014B1870704700BF8505002051
:1045F000074B0849186843F2390201FB0020186094
:104600006FF00043B0FBF3F3C3EBC373C01A704702
:10461000040000206D4EC64108B50348FDF7CCFBF1
:10462000024B01221A7008BDF658000888050020C8
:104630000148FDF7C1BB00BF015900080148FDF763
:10464000BBBB00BF0F5900080148FDF7B5BB00BF59
:104650001D5900082DE9F7433B4C07463B48994656
:104660000E469046FDF7A8FB63787BB338480422DA
:104670000521FDF765FC364803220621FDF760FCA5
:104680000023A2786370002A32D0FEF783FBD4E9BE
:104690000223C4E90201216952EA030514BF821A08
:1046A0000022013121614B4600922A482A4D4246A0
:1046B000FDF782FB2948FDF77FFB0024A64211DCB1
:1046C000274803B0BDE8F043FDF776BB204803223E
:1046D0000521FDF735FC1E4804220621FDF730FCBC
:1046E0000123CEE7395D2846FDF766FB0134E5E797
:1046F0001146384600F084FD6369054603B96061E0
:1047000021690131216165B162691648C2F1010276
:10471000CDE900892B462A44FDF74EFB03B0BDE8E6
:10472000F0834B46424631460F480B4CFDF744FBA5
:104730000A48FDF741FBAE42C2DD795D2046FDF738
:104740003BFB0135F7E700BF880500202959000829
:1047500000F0014034590008715900086E590008F2
:10476000075A000877590008A55900082DE9F047B5
:104770000C4600228AB0114620682C4EDFF8CC800F
:1047800000F03EFD002281461146606800F038FDD1
:10479000002282461146A06800F032FD0022114638
:1047A0000546E068224C00F02BFDCAF10C03337182
:1047B000204BE361204B6362204B2362204BA362BA
:1047C000204BE3627071D8F80030257604F11C00AC
:1047D000C6F800909847D8F80C3030689847002504
:1047E000012008230522CDE90132CDE90850CDE9A9
:1047F0000450CDE90655D8F8183003950095217E70
:1048000032791F467379B847D8F83430A5702846F6
:10481000984773790093237E0B485FFA8AF24946E2
:10482000FDF7CAFAD8F86440A047FDE70800002069
:104830008805002019460008554600083146000842
:104840003D46000849460008CF5900084458000872
:10485000F7B50C46002211460746206800F0D0FC50
:10486000002205461146606800F0CAFC022F064689
:104870002ADD0022A068114600F0C2FCC3B2134C2E
:10488000134AE261134A6262134A144F2262144AC5
:10489000A2621846134A0193E262FFF7A1FE3A684A
:1048A00004F11C009047FFF793FE019B0E48F2B203
:1048B0002946FDF781FA2846FB6B4FF6FF7271B26D
:1048C0009847002003B0F0BD0023D8E788050020FA
:1048D00019460008554600083146000844580008AB
:1048E0003D460008494600080A5A00082DE9F04FE5
:1048F0000C4600228FB011462068DFF80881384E40
:1049000000F07EFC002211460B90606800F078FCFD
:10491000002281461146A06800F072FC0022824607
:104920001146E06800F06CFC002211460C902069F2
:104930002C4C00F065FC0B9BC8F80030C9F10C034F
:1049400088F804300C9B88F80530274BE361274B2F
:104950006362274B2362274BA362274BE3620D90D0
:10496000336884F818A004F11C009847F368D8F85D
:104970000000984700254FF0010B08230522CDE9E0
:104980000132CDE9085BCDE90655CDE9045BB36999
:1049900003950095217E98F804201F46584698F804
:1049A0000530B84715480D9B80F83B302830FFF79D
:1049B000FFF9736B84F802B0284698479DF83400DD
:1049C00001909DF8300000900B990D485FFA8AF332
:1049D0005FFA89F2FDF7F0F9746EA047FDE700BFBA
:1049E000445800088805002019460008554600086C
:1049F000314600083D46000849460008C805002029
:104A00003C5A0008080000202DE9F0470C4600221F
:104A100094B011468246206800F0F2FB0022114655
:104A20008146606800F0ECFB00221146C5B2A06828
:104A300000F0E6FB002211465FFA80F8E06800F023
:104A4000DFFB0022C7B21146206900F0D9FBBAF1A2
:104A5000050FC6B240F38A8000226069114600F05B
:104A6000CFFBC3B2424CC5F10C052571414DA67177
:104A700085F83830404BEB61404B6B62404B414E08
:104A80002B62414BAB62414BEB6205F11C0033687A
:104A9000C4F8009085F8188067719847A2683C496F
:104AA000DFF8EC900CA8FDF79BF9A368227902933C
:104AB000A37901936379009321682B7E8046C2F12C
:104AC0000C023448FDF778F9F36820689847002213
:104AD00001204EF66023CDE90723CDE90320CDE97F
:104AE0000522082302936379019323790093F769E0
:104AF0002B7E94F90610B84795F83810B76A4145EF
:104B000038BF4146C9B20CA8B847A3680133A360B7
:104B1000736E204E0B930B9B98472B78002BFAD08B
:104B20004FF47A70FEF794F8A26849460CA8FDF796
:104B300057F9A36822790293A379019363790093CB
:104B40002B7E21688246C2F10C023046FDF734F913
:104B500095F83810514538BF5146C9B20CA8B8472E
:104B6000A3680133A36000232B70D4E7002379E707
:104B70000800002088050020194600085546000856
:104B800031460008445800083D46000849460008E0
:104B9000805A0008845A000810B51A4C0122217B63
:104BA0002069FDF7CDF9217B20690222FDF764FA27
:104BB000217B2069144C00230122FDF777FA134B67
:104BC00013484FF480021A60402283F81623FDF741
:104BD000F3F808212046FDF775FF02460028F8D1BA
:104BE00001210C48FDF796FA0320FDF713FB012283
:104BF00008481146FDF78EFABDE810400648FDF75B
:104C0000DBB800BF080000200030004000E100E0F9
:104C1000C95A000800F40140DE5A00080B46002281
:104C200010B51146186800F0EBFA04460C480D4B1D
:104C3000C3610D4B43620D4B03620D4B83620D4B01
:104C4000C3620D4B1C301B68984714F0FF0018BF5F
:104C50000120FEF7CFFEFFF79FFF002010BD00BF31
:104C6000880500201946000855460008314600080E
:104C70003D460008494600084458000838B50B4630
:104C8000002211461868104D00F0BAFA04460F4889
:104C90000F4AC2610F4A42620F4A02620F4A8262A1
:104CA0000F4AC2622A681C30904714F0FF0F05D1EA
:104CB000EB6A9847FFF770FF002038BD4FF0000007
:104CC000FEF786FEF6E700BF44580008880500207E
:104CD0001946000855460008314600083D460008C0
:104CE000494600082DE9F047304E314DA0B04FF055
:104CF000FF38304FDFF8C89040220021684600F0AE
:104D00001BF931463846FDF757F800244846FDF7B1
:104D1000E4FE0028FAD00D2807D00A2805D020ABE1
:104D20002344013403F8800CF0E7002CE2D020ABE0
:104D30002344DFF890A0002403F8804C5046FCF791
:104D40003FF8514602468146684600F045F907465D
:104D5000B8B9242303FB04535B6BBBB10DEB090013
:104D60001549DFF8549000F075F90DF14008A0B92D
:104D7000242303FB04544146636B3846984780461E
:104D800004E00134062C0AF1240AD7D1B8F1FF3F20
:104D9000AFD10A48FDF710F8ABE748F827004946BD
:104DA000002000F057F90137E1E700BFF35A00088F
:104DB00008000020FE5A0008035B0008055B00089D
:104DC000003000401C0000201FB50D480D4C012292
:104DD0000021FDF79FF9012211460948FDF79AF9D4
:104DE00001A8FDF780FE4FF4E13301A920460193AD
:104DF000FDF78EFE01212046FDF780FE04B010BDB8
:104E000000F401400030004008B501210220FDF708
:104E1000D7FC01211F20FDF779FA01210D20FDF7B4
:104E200075FA01212020FDF771FA01212120FDF7FB
:104E30006DFA01212220FDF769FA01214120FDF7D9
:104E400065FA01210320FDF761FA01210E20FDF72B
:104E50005DFA6420FDF76EF80120FDF7DFF9FFF73A
:104E6000B3FFFFF717F9064800220621FDF752F9B4
:104E7000BDE80840024800220721FDF74BB900BFFA
:104E800000F0014008B5FFF7BFFF054B054A064992
:104E90000648FCF791FFFFF725FF002008BD00BF83
:104EA000165B00081F5B00082B5B0008325B0008E4
:104EB0007047FEE7FEE7FEE7FEE770477047704782
:104EC0007047FEF7FDBC000038B5074D074C297848
:104ED0002068FDF7E1F8012805D129782068BDE8B0
:104EE0003840FDF7C1B838BD14000020180000207C
:104EF00070B50D4E0D4D761BB61006D0002455F83A
:104F0000043B01349847A642F9D1094E094D761B5E
:104F100000F0CCFBB61006D0002455F8043B013459
:104F20009847A642F9D170BD1860000818600008C3
:104F30002060000818600008F0B4860746D0541EB0
:104F4000002A3CD0CAB2034601E0013C37D303F843
:104F5000012B9D07F9D1032C2AD9CDB245EA0525AD
:104F60000F2C45EA054534D9A4F1100222F00F0CAC
:104F700003F120071609674403F1100242E90455C2
:104F800042E902551032BA42F8D1721C14F00C0FEB
:104F900003EB021204F00F0613D0331F23F00303B8
:104FA0000433134442F8045B9342FBD106F003043C
:104FB0002CB1CAB21C4403F8012B9C42FBD1F0BCBB
:104FC000704734461346002CF3D1F8E714460346E5
:104FD000C1E71A462646E0E79AB3F0B440EA010575
:104FE000AD0704460346084628D020780E7886424E
:104FF00029D1012A2AD0254650B115F8010F11F800
:10500000016FEB43B04213441DD1E318F4D11846AD
:10501000F0BC704707681C4653F8045BA5F10136E5
:10502000BD42014626EA050600F10400DDD1043A3E
:105030001C4601460AD016F0803F07D1032AE9D862
:10504000D3E710467047801BF0BC70470020F0BCCF
:10505000704700BF024B1A6801235C3200F002B8AF
:10506000F40000209446024620B3B0B417460D4623
:1050700017F8010B01E0A04217D015F8014B002CE6
:10508000F9D1E8B117F8015B0C4601E0002BF9D02B
:1050900014F8013B9D42F9D155B1002307F8013CBA
:1050A000CCF800701046B0BC70476BB13A46DDE7F3
:1050B0002F46F5E7DCF80020002AD6D110467047CD
:1050C000B0BCCCF800007047CCF8007010461370EC
:1050D000E9E700BF012B2DE9F84F3AD0242B984681
:1050E00037D8464F0D46AC4615F8014B3E5D16F0DD
:1050F0000806F8D12D2C69D02B2C0ABF95F800B0EA
:10510000A3460CF102056FF00049002B40D0102B94
:1051100051D0B9FBF8FE0027BC4608FB1E9A07E0F9
:10512000E64513D32FD008FB0C4C012715F801BB23
:10513000ABF13004092C05D9ABF14104192C0FD87F
:10514000ABF13704A34213DD002FE9DA4FF0FF374C
:10515000ECE700F071F8162303600020BDE8F88F3B
:10516000ABF16104192C03D8ABF15704A342EBDC7B
:10517000002F25DB0EB1CCF1000C0AB18FBB116002
:105180006046BDE8F88FA245CDDA4FF0FF37CDE796
:10519000BBF1300F03D04FF00A084346B9E72B7834
:1051A00003F0DF03582B1ED14FF0100895F801B023
:1051B00043460235ADE7BBF1300F18D09846A8E75B
:1051C0002223036052B1691ECC46D8E795F800B09F
:1051D0004FF000490CF10205012696E7CC466046E7
:1051E000CFE7E146EFE74FF00808434691E72C7818
:1051F00004F0DF04582CD7D098468AE7FD5E0008FB
:1052000030B4044C0D46134601462A46206830BC93
:10521000FFF760BFF4000020024B13B1024800F01A
:1052200005B8704700000000455200080023014601
:105230001A46184600F020B8014B1868704700BFA6
:10524000F400002038B5084B084D5B1B9C1007D0BC
:10525000043B1D44013C55F804399847002CF9D112
:10526000BDE8384000F028BA24600008206000083B
:10527000704700BF704700BF2DE9F047DFF880A0FE
:105280000646DAF8000098460F469146FFF7F0FF11
:105290001A4B1B68D3F8484124B365681F2D26DCE0
:1052A0005EB9AB1C0135DAF80000656044F8237084
:1052B000FFF7E0FF0020BDE8F08704EB8503012144
:1052C000C3F88890D4F88821A9400A43022EC4F874
:1052D0008821C3F80881E4D1D4F88C311943C4F88B
:1052E0008C11DEE703F5A674C3F84841D5E7DAF878
:1052F0000000FFF7BFFF4FF0FF30DCE7F85E00086B
:105300002005002000000000F8B5C1F30A57A7F2FD
:10531000FF35132D0B460C460246064632DC002DA7
:105320001EDB354F2F4101EA070C5CEA000C14D05C
:105330002FA3D3E90023FAF709FF00220023FBF78C
:105340004BFB40B1002C03DD4FF480132B411C4478
:1053500024EA070400263246234610461946F8BDC3
:1053600023A3D3E90023FAF7F1FE00220023FBF781
:1053700033FB0028EFD0002C34DB26432ED01F4C0B
:105380000026E8E7332D07DDB5F5806FE5D1FAF7A4
:10539000DDFE02460B46E0E7A7F213474FF0FF3C65
:1053A0002CFA07F70742D8D011A3D3E90023FAF764
:1053B000CDFE00220023FBF70FFB0028CBD0002CF2
:1053C00009DD142D0CD00122C5F1340302FA03F3D8
:1053D0009E1928BFA41826EA0706BCE73446BAE798
:1053E0000134F8E700264FF00044B4E7AFF3008043
:1053F0009C7500883CE4377EFFFF0F000000F03F03
:10540000F8B5C1F30A57A7F2FF35132D0B460C462A
:105410000246064620DC002D40DB354F2F4101EAD5
:10542000070C5CEA000C14D02FA3D3E90023FAF791
:105430008DFE00220023FBF7CFFA40B1002C03DAE7
:105440004FF480132B411C4424EA07040026324603
:10545000234610461946F8BD332D07DDB5F5806F9C
:10546000F7D1FAF773FE02460B46F2E7A7F21347AD
:105470004FF0FF3C2CFA07F70742EAD01AA3D3E912
:105480000023FAF763FE00220023FBF7A5FA0028A9
:10549000DDD0002C1BDB26EA0706D8E712A3D3E9F0
:1054A0000023FAF753FE00220023FBF795FA0028A9
:1054B000CDD0002C02DB00263446C8E724F00043A0
:1054C0000C4A1E43002E18BF14460026BFE7142DB9
:1054D00008D00122C5F1340302FA03F39E1928BF54
:1054E000A418D8E70134D6E79C7500883CE4377EE1
:1054F000FFFF0F000000F0BF2DE9F043C1F30A5C8D
:10550000ACF2FF36132E83B002460B460D464FEA2F
:10551000D174074631DC002E4FDB3D49314103EAAF
:10552000010010432ED003EA510352EA03074FEA69
:1055300051010CD04FF48023132E25EA010143FAC8
:1055400006F545EA01050CBF4FF000470027314939
:1055500001EBC4042B46D4E900453A4620462946CF
:10556000FAF7F4FDCDE90001DDE9000122462B4602
:10557000FAF7EAFD03B0BDE8F083332E07DDB6F598
:10558000806F42D01046194603B0BDE8F083ACF2FC
:10559000134C4FF0FF3121FA0CF10842F2D010EA1F
:1055A00051024FEA5103D2D04FF0804220EA030764
:1055B00042FA0CFC47EA0C07C9E721F0004101431D
:1055C000E0D0C3F31301014312484F420F4300EBF5
:1055D000C401D1E900895D0C3F0B6D0407F400277D
:1055E00047EA050340464946FAF7B0FDCDE9000118
:1055F000DDE9000142464B46FAF7A6FD21F00045E1
:1056000045EAC47103B0BDE8F083FAF79FFDBBE73C
:10561000FFFF0F00006000082DE9F048C1F30A57B2
:10562000A7F2FF34132C0B460D4602460FDC002C6C
:105630002ADB1D49214103EA010010432FD04FF41A
:10564000002323411D4425EA0105002325E0332CD6
:1056500007DDB4F5806F22D1FAF778FD02460B46DC
:105660001DE0A7F213474FF0FF3121FA07F7384248
:1056700015D00122C4F1330302FA03F3C31828BF83
:10568000AD1823EA070308E001F00045013404BF28
:1056900045F07F5545F4401500231A462B46104629
:1056A0001946BDE8F08800BFFFFF0F00F8B500BF46
:1056B000F8BC08BC9E467047F8B500BFF8BC08BCF3
:0456C0009E4670474B
:1056C800000000000000F03F00000000000024403F
:1056D80000000000000059400000000000408F401A
:1056E800000000000088C34000000000006AF84085
:1056F8000000000080842E4100000000D0126341A9
:105708000000000084D797410000000065CDCD411E
:1057180000093D000080000000366E010000000016
:10572800C01200001F000000A816000017000000AB
:10573800841C00000F000000E42500001E0000008B
:10574800B42D000016000000083900000E0000000B
:105758002C4C00001D000000685B000015000000D4
:10576800747200000D000000589800001C00000032
:1057780034B7000014000000E8E400000C0000004A
:10578800783101001B000000686E01001300000062
:1057980034CA01000B000000286202001A00000051
:1057A80040DB0200120000003C9303000A000000E6
:1057B800C0C204001900000060B305001100000019
:1057C800382007000900000020A1070000000000A1
:1057D800000000A0703D1F40000000608F422F4075
:1057E8000000000000403F400000000000404F4023
:1057F8000000000000405F400000000000406F40D3
:105808000000000000407F40000000000000000091
:10581800000000400AD72440000000E07AD4344059
:1058280000000080C2D54440C194C10000000000BF
:10583800040506030A02090108000000F52D000806
:10584800612E00089D320008792E0008BD3200083C
:105858000B3300087933000899350008BF2D00087C
:1058680031370008A52E0008F92E0008ED2D000894
:1058780059300008112F00087D2F00087D2E0008E0
:105888009F2E00089B2E0008C92F0008CD2F000866
:10589800872E0008313000083D320008D12F00085B
:1058A800DD3000089D3000080D2F000800000000C2
:1058B800000000000000000000000000001F1D1F85
:1058C8001E1F1E1F1F1E1F1E1F1F1C1F1E1F1E1FE9
:1058D8001F1E1F1E1F666E6900666E692B006E61B3
:1058E8006E00666E692D00286E756C6C29004F6E0F
:1058F8005478446F6E650D0A004F6E547854696D84
:10590800656F75740D0A004F6E527854696D656F36
:1059180075740D0A004F6E52784572726F720D0AD7
:10592800004F6E5278446F6E650D0A005B256C75EA
:105938005D52656365697665642C207273736920AE
:105948003D2025642C20736E72203D2025642C2078
:1059580064656C745F7278646F6E655F74733A2007
:10596800256C750D0A002020003078257820005B12
:10597800256C752F256C755D526563656976656460
:105988003A20256C752C2072737369203D2025649C
:105998002C20736E72203D2025640D0A0052656329
:1059A80065697665642C2073697A653A2025752CBB
:1059B8002072737369203D2025642C20736E722039
:1059C8003D2025640D0A00737461727420746F2081
:1059D80072656376207061636B6167652028667203
:1059E80065713A20256C752C2064723A25752C2037
:1059F80062773A2025642C2063723A202564290DA9
:105A08000A00537461727420746F2074786377206D
:105A180028667265713A20256C752C20706F776541
:105A2800723A20257564622C206F70743A202575AF
:105A3800290D0A00737461727420746F2072656393
:105A480076207061636B6167652028667265713ABC
:105A580020256C752C2064723A25752C2062773AC3
:105A68002025752C2063723A2025752C206C646FD4
:105A78003A202575290D0A00256C7500737461722A
:105A88007420746F2074782064617461286672656C
:105A9800713A20256C752C2064723A2025752C20CB
:105AA80062773A25642C2063723A2025642C207092
:105AB8006F7765723A202575293A20256C750D0A8D
:105AC80000656E7465722064656570736C656570D9
:105AD8002E2E2E0D0A006C65617665206465657052
:105AE800736C6565702E2E2E0D0A004153523636A2
:105AF80030313A7E23000D0A2573002C000D0A2B45
