:020000040800F2
:10000000004000207D0100080109000803090008E4
:100010000509000807090008090900080000000098
:100020000000000000000000000000000B090008B4
:1000300000000000000000000D0900080F09000882
:10004000C5010008C5010008C5010008C501000878
:10005000C5010008C5010008C5010008C501000868
:10006000C5010008C5010008C5010008C501000858
:10007000C5010008C5010008C5010008C501000848
:10008000C5010008C5010008C5010008C501000838
:10009000C5010008C5010008C5010008C501000828
:1000A000C5010008C5010008C5010008C501000818
:1000B000C5010008C5010008C5010008C501000808
:1000C000C5010008C501000811090008C5010008A4
:0400D000C50100085E
:1000D40010B5054C237833B9044B13B10448AFF37E
:1000E40000800123237010BD2C04002000000000B8
:1000F4003C0A000808B5034B1BB103490348AFF39E
:10010400008008BD00000000300400203C0A000804
:10011400064B0748E02283F82220C0210023C2189E
:100124000133252B82F80013F9D1704700ED00E06C
:1001340000E100E00E4A08B5D2F8883043F47003B9
:10014400C2F888304FF08042D36843F08003D36014
:10015400084B5A6922F4702242F480325A619A6838
:100164009207FCD5FFF7D4FFBDE8084000F02AB899
:1001740000ED00E000000240002103E00B4B5B585F
:10018400435004310A480B4B42189A42F6D30A4AA8
:1001940002E0002342F8043B084B9A42F9D3FFF7EC
:1001A400C9FF00F0B5FB00F093FBFEE7640A00080A
:1001B400000000202C0400202C04002070040020E7
:1001C400FEE7000008B5012000F0DAF80B4B984276
:1001D40013D90B4A0133B0FBF3F31370094A4FF4FC
:1001E4007A73B0FBF3F0084B0138E021586082F8D1
:1001F400231000229A6007221A6008BD3F420F00B4
:100204004804002000ED00E010E000E030B5094BA8
:1002140009491B784D6863B18A6858430023144622
:100224008A689442FBD098BF5B1923449B1A83428B
:10023400F5D330BD4804002010E000E04FF47A7399
:100244005843FFF7E3BF0000012310B58B40062A93
:1002540000F28580DFE802F0040F1C2938496600AB
:1002640002681A43026082681A438260C26822EA02
:100274000303C3600BE002681A43026082681A43F6
:100284008260C2681A43C26002691343036110BDED
:1002940002681A43026082681A438260C2681A4381
:1002A400C260026922EA0303F0E7026822EA030259
:1002B4000260826822EA03028260426822EA030240
:1002C4004260826913430EE0026822EA030202607C
:1002D400826822EA03028260426822EA03024260E0
:1002E400826922EA03038361D1E7204CA0426FEACA
:1002F40003020ED107290CD98169114081618168FB
:100304001140816001680B43036003691A40026174
:10031400BDE701681140016081680A40826042685B
:100324001A43CDE7114CA0426FEA03020AD1072910
:1003340008D9836913408361836813408360036829
:100344001340E1E701681140016081681140816058
:1003540041680B43436083691A40826197E70268EE
:100364001A430260826822EA03027EE700FC01402D
:100374008269012303FA01F1514081617047000051
:100384004FF0804301461A6802F4E042B2F5A04FF0
:1003940020D015D8B2F5805F1ED0B2F5005F1B489F
:1003A40008BF4FF4004002291BD0032923D00129A0
:1003B40005D14FF080431B68C3F30323D840704733
:1003C400B2F5C04F0BD0114B1148B2F5E04F18BF36
:1003D4001846E8E70F48E6E74FF4FA40E3E70E482B
:1003E400E1E74FF080421368C3F30323D840136856
:1003F400C3F34213E2E74FF080421368C3F30323CD
:10040400D8401368C3F3C233D8E700BF00366E0187
:10041400006CDC020048E80100093D0041284AD88C
:10042400DFE810F011020702FD01E401D201B90175
:10043400710167015D01530149013F0135010D015E
:100444000301D600EA00E000CC004900C200B80075
:10045400AE00A30099008F0085006B006100570077
:100464004D004200170121012B01490049004900B8
:100474004900490049004900490049004900490030
:10048400490049002E0225021B0238029501490049
:100494004900490049004900490049004900490010
:1004A4004900490042024C024FF08043DA6819B116
:1004B40042F48012DA60704722F48012FAE74FF0B7
:1004C4008043DA6811B142F40022F3E722F40022F7
:1004D400F0E74FF08043DA6811B142F48022E9E793
:1004E40022F48022E6E74FF08043DA6811B142F447
:1004F4000032DFE722F40032DCE74FF08043DA68B1
:1005040079B142F48032DA604FF080439A6A02F0A3
:100514003F023F2AFAD15A6931B142F004025A61CA
:10052400704722F48032EEE722F00402F7E74FF03E
:100534008043DA6811B142F40042BBE722F400427E
:10054400B8E74FF08043DA6811B142F48042B1E772
:1005540022F48042AEE74FF08043DA6811B142F4EE
:100564000052A7E722F40052A4E74FF080431A692F
:1005740019B142F020021A61704722F02002FAE712
:100584004FF08043DA6811B142F4805292E722F4CA
:1005940080528FE74FF08043DA6811B142F4006271
:1005A40088E722F4006285E74FF08043DA6811B1EE
:1005B40042F480627EE722F480627BE74FF080435E
:1005C400DA6811B142F4807274E722F4807271E740
:1005D4004FF08043DA6811B142F020026AE722F05A
:1005E400200267E74FF08043DA6811B142F08002DD
:1005F40060E722F080025DE74FF08043DA6871B172
:1006040042F04002DA604FF080439A6A02F03F02FF
:100614003F2AFAD15A6929B142F008027FE722F051
:100624004002EFE722F0080279E74FF08043DA68EE
:1006340011B142F010023DE722F010023AE74FF008
:100644008043DA6811B142F0007233E722F000729D
:1006540030E74FF08043DA6811B142F0807229E745
:1006640022F0807226E74FF08043DA6811B142F439
:1006740000021FE722F400021CE74FF08043DA680F
:1006840011B142F4800215E722F4800212E74FF020
:100694008043DA6811B142F008020BE722F0080245
:1006A40008E74FF08043DA6811B142F0040201E731
:1006B40022F00402FEE64FF08043DA6811B142F002
:1006C4000202F7E622F00202F4E64FF08043DA6811
:1006D40011B142F00102EDE622F00102EAE64FF028
:1006E4008043DA6811B142F00062E3E622F000626E
:1006F400E0E64FF08043DA6811B142F08062D9E657
:1007040022F08062D6E64FF080431A6979B142F450
:1007140000721A619A6A02F03F023F2AFAD15A69BA
:1007240042F010025A611A6942F0100223E722F0E3
:1007340010021A619A6A02F03F023F2AFAD15A69FA
:1007440022F010025A611A6922F4007213E74FF082
:1007540080431A6979B142F480521A619A6A02F0AC
:100764003F023F2AFAD15A6942F020025A611A69BB
:1007740042F40062FFE622F400621A619A6A02F00F
:100784003F023F2AFAD15A6922F020025A611A69BB
:1007940022F48052EFE64FF080431A6971B142F0BF
:1007A40008021A614FF080439A6A02F03F023F2A1E
:1007B400FAD15A6929B142F00102B0E622F00802E6
:1007C400EFE722F00102AAE64FF080431A6931B143
:1007D40042F004021A611A6942F04002CBE622F0A8
:1007E40004021A611A6922F04002C4E64FF0804301
:1007F4001A6971B142F002021A614FF080439A6A99
:1008040002F03F023F2AFAD15A6929B142F00202AA
:1008140085E622F00202EFE722F002027FE64FF0C3
:100824008043DA6811B142F0805243E622F08052EC
:1008340040E64FF080431A6911B142F001029AE692
:1008440022F0010297E64FF080431A6911B142F099
:10085400800290E622F080028DE64FF080431A6910
:1008640011B142F4807286E622F4807283E64FF07E
:100874008043DA6809B11A431CE622F0804219E683
:100884004FF08043DA6811B142F0005212E622F0D0
:1008940000520FE64FF080431A6911B142F48062AE
:1008A40069E622F4806266E64FF08043DA6811B1AB
:1008B40042F40012FEE522F40012FBE54FF08043FF
:1008C400DA6811B142F00042F4E522F00042F1E5A9
:1008D40008B501210D20FFF7A1FD0748064C0322AE
:1008E4000E21FFF7B1FCC820FFF7A8FC0E2120461B
:1008F400FFF73EFDF7E700BF00F001407047FEE759
:10090400FEE7FEE7FEE77047704770477047000058
:1009140070B50D4E0D4D761BB61006D0002455F85B
:10092400043B01349847A642F9D1094E094D761B80
:1009340000F082F8B61006D0002455F8043B0134C8
:100944009847A642F9D170BD580A0008580A000811
:10095400600A0008580A0008024B13B1024800F06C
:1009640005B87047000000007D0900080023014617
:100974001A46184600F01AB838B5084B084D5B1BE8
:100984009C1007D0043B1D44013C55F8043998479A
:10099400002CF9D1BDE8384000F054B8640A0008CE
:1009A400600A0008704700BF704700BF2DE9F04798
:1009B400DFF880A00646DAF8000098460F46914614
:1009C400FFF7F0FF1A4B1B68D3F8484124B365685E
:1009D4001F2D26DC5EB9AB1C0135DAF8000065601A
:1009E40044F82370FFF7E0FF0020BDE8F08704EB34
:1009F40085030121C3F88890D4F88821A9400A43CB
:100A0400022EC4F88821C3F80881E4D1D4F88C31CB
:100A14001943C4F88C11DEE703F5A674C3F8484102
:100A2400D5E7DAF80000FFF7BFFF4FF0FF30DCE74F
:100A3400540A000828040020F8B500BFF8BC08BC1C
:100A44009E467047F8B500BFF8BC08BC9E46704788
:040A5400000000207E
:080A58005D090008F900000827
:040A6000D5000008B5
:100A640000000000EC02002054030020BC0300201E
:100A74000000000000000000000000000000000072
:100A84000000000000000000000000000000000062
:100A94000000000000000000000000000000000052
:100AA4000000000000000000000000000000000042
:100AB4000000000000000000000000000000000032
:100AC4000000000000000000000000000000000022
:100AD4000000000000000000000000000000000012
:100AE4000000000000000000000000000000000002
:100AF40000000000000000000000000000000000F2
:100B040000000000000000000100000000000000E0
:100B14000E33CDAB34126DE6ECDE05000B000000A5
:100B240000000000000000000000000000000000C1
:100B340000000000000000000000000000000000B1
:100B440000000000000000000000000000000000A1
:100B54000000000000000000000000000000000091
:0C0E840000000000000000004C040020F2
:040000050800017D71
:00000001FF
