:020000040800F2
:10000000004000207D010008390F00083B0F000868
:100010003D0F00083F0F0008410F000800000000DE
:10002000000000000000000000000000430F000876
:100030000000000000000000450F0008470F000806
:10004000C5010008C5010008C5010008C501000878
:10005000C5010008C5010008C5010008C501000868
:10006000C5010008C5010008C5010008C501000858
:10007000C5010008C5010008C5010008C501000848
:10008000C5010008C5010008C50100084F0F0008A0
:10009000C5010008C5010008C5010008C501000828
:1000A000C5010008C5010008C5010008C501000818
:1000B000C5010008C5010008C50100084B0F000874
:1000C000C5010008C5010008490F0008C501000866
:0400D000C50100085E
:1000D40010B5054C237833B9044B13B10448AFF37E
:1000E40000800123237010BD3C04002000000000A8
:1000F4001C11000808B5034B1BB103490348AFF3B7
:10010400008008BD00000000400400201C1100080D
:10011400064B0748E02283F82220C0210023C2189E
:100124000133252B82F80013F9D1704700ED00E06C
:1001340000E100E00E4A08B5D2F8883043F47003B9
:10014400C2F888304FF08042D36843F08003D36014
:10015400084B5A6922F4702242F480325A619A6838
:100164009207FCD5FFF7D4FFBDE8084000F02AB899
:1001740000ED00E000000240002103E00B4B5B585F
:10018400435004310A480B4B42189A42F6D30A4AA8
:1001940002E0002342F8043B084B9A42F9D3FFF7EC
:1001A400C9FF00F0D5FE00F06BFEFEE75011000819
:1001B400000000203C0400203C040020A404002093
:1001C400FEE7000008B5012000F0D8FA0B4B984276
:1001D40013D90B4A0133B0FBF3F31370094A4FF4FC
:1001E4007A73B0FBF3F0084B0138E021586082F8D1
:1001F400231000229A6007221A6008BD3F420F00B4
:100204005804002000ED00E010E000E010B50124E7
:1002140004FA02F2013A9A4207D304688A4024EAB3
:10022400020203FA01F10A43026010BD70B5037CB7
:1002340005460C468BB1C37B002B77D1A648EB7ADD
:100244000168C3F10303DB003F229A4021EA020163
:10025400AA7B02FA03F30B430360EB7B03F58023D1
:1002640023331B030F22C3F83823EB7B03F58023CE
:1002740023331B03C3F84023EB7B03F58023233391
:100284001B03C3F84823EB7B03F5802323331B03B1
:10029400C3F85023EB7B03F5802323331B03C3F8FC
:1002A4005823EB7BE97A03F5802323331B030029CE
:1002B40041D103F568710A68D207FCD403F108023E
:1002C400626003F11002A26003F11402E26003F120
:1002D4001802A26103F11C02226103F140022360AF
:1002E40062614433E3612E7C002E79D1A2691368E4
:1002F40023F0C06343F000731360A269136823F012
:10030400C07343F4000313602B7CA06903221421FF
:10031400FFF77CFFA269136823F4C0631360A2692A
:10032400136823F4C073136000237BE0012B40F0B7
:100334008C806A4883E7012903F5687219D1116832
:100344008E07FCD403F15802226003F1600262605C
:1003540003F16802A26003F16C02E26003F170022F
:10036400A26103F17402226103F1980262619C3379
:10037400B8E7022919D111684807FCD403F1B00287
:10038400226003F1B802626003F1C002A26003F1CB
:10039400C402E26003F1C802A26103F1CC0222614B
:1003A40003F1F0026261F4339CE711680907FCD49D
:1003B40003F58472226003F58872626003F58C721F
:1003C400A26003F58E72E26003F59072A26103F5F8
:1003D4009272226103F5A472626103F5A67381E748
:1003E400012E33D1A269136823F0C06343F0007374
:1003F4001360A269136823F0C07313602B7CA06997
:1004040003221421FFF702FFA269136823F4C063D7
:100414001360A269136823F4C07343F480731360F8
:10042400EB7A00266269E0690021116004220B2145
:10043400FFF7ECFE33460422E0690721FFF7E6FEEE
:10044400E269136823F00203136070BD022E1DD10C
:10045400A269136823F0C0631360A269136823F0D0
:10046400C07313602B7CA06903221421FFF7CEFE16
:10047400A269136823F4C06343F480631360A26920
:10048400136823F4C0731360EE7A4DE7032E20D172
:10049400A269136823F0C0631360A269136823F090
:1004A400C07313602B7CA06932461421FFF7AEFEA3
:1004B400A269136823F4C06343F480631360A269E0
:1004C400136823F4C07343F480731360EE7A3346E5
:1004D400A8E700231E46A5E70010004004100040D2
:1004E400134B1A68D10710B514D41A68920713D4A1
:1004F4001B6813F0040F14BF022403240D4B53F89C
:10050400243003B198470C4A0C4B3CB901211160CB
:10051400196010BD0024F1E70124EFE7012C01D19B
:100524000221F4E7022C0CBF04210821EFE700BFED
:10053400F03202406004002038330240403302406D
:10054400134B1A68D10710B515D41A68920714D43E
:100554001B6813F0040F14BF022403240D4B221D47
:1005640053F8223003B198470B4A0C4B3CB9012194
:100574001160196010BD0024F0E70124EEE7012C9E
:1005840001D10221F4E7022C0CBF04210821EFE77A
:10059400F0420240600400203843024040430240DD
:1005A40010B588B0044620220021684600F0F4FC0F
:1005B400002C50D069462046FFF738FE029A069870
:1005C40000231360039A1360A389049A43F48053AD
:1005D4001360637A03220E21FFF718FEA37A0698AC
:1005E40003220B21FFF712FE237A0698032204212B
:1005F400FFF70CFE237A069803220121FFF706FE7B
:10060400069A136843F001031360009B22681A6082
:10061400019B62681A60E37B2E4A4021EBB94FF0DC
:100624000040106082F81F1303F580236169E27AA9
:1006340023331B0369B3B2B9D3F8182342F480728D
:1006440042F00102C3F81823E27BE37A03EB82034E
:10065400214A42F8231008B010BD4FF40020106066
:1006640082F81313E0E7012A06D1D3F8182342F4E1
:10067400007242F00202E5E7022AD3F818230BBF06
:1006840042F4806242F4006242F0040242F0080242
:10069400D8E742B9D3F8182322F4807222F0010279
:1006A400C3F81823D7E7012A06D1D3F8182322F474
:1006B400007222F00202F3E7022AD3F818230BBFD8
:1006C40022F4806222F4006222F0040222F0080282
:1006D400E6E700BF00E100E06004002000F58020B0
:1006E4002330000300F5687050F8083CDB075CBF5A
:1006F400012340F8083C49B90368DA07FCD440F206
:10070400011303600368DB07FCD57047012906D198
:1007140003689907FCD440F202230360704702295E
:1007240005D103685A07FCD440F20443F5E7036893
:100734001B07FCD440F60803EFE70000072910B5B7
:1007440010D90D4B083998420BBF01EB41018900C8
:1007540007230F238B408A40C16B21EA03031A430A
:10076400C26310BD836B89000F248C4023EA040309
:100774008A401A438263F4E700FC01404FF080434F
:1007840001461A6802F4E042B2F5A04F20D015D811
:10079400B2F5805F1ED0B2F5005F1B4808BF4FF46E
:1007A400004002291BD0032923D0012905D14FF091
:1007B40080431B68C3F30323D8407047B2F5C04F8E
:1007C4000BD0114B1148B2F5E04F18BF1846E8E7BB
:1007D4000F48E6E74FF4FA40E3E70E48E1E74FF04D
:1007E40080421368C3F30323D8401368C3F342134E
:1007F400E2E74FF080421368C3F30323D840136841
:10080400C3F3C233D8E700BF00366E01006CDC02CC
:100814000048E80100093D004FF08043986800F467
:10082400C03070474FF08043986800F4C040704770
:100834004FF08043986800F4C05070474FF08043F5
:10084400986800F4C060704741284AD8DFE810F087
:1008540011020702FD01E401D201B901710167012E
:100864005D01530149013F0135010D010301D6002A
:10087400EA00E000CC004900C200B800AE00A300CA
:1008840099008F0085006B00610057004D00420005
:10089400170121012B014900490049004900490081
:1008A40049004900490049004900490049004900FC
:1008B4002E0225021B023802950149004900490015
:1008C40049004900490049004900490049004900DC
:1008D40042024C024FF08043DA6819B142F48012AC
:1008E400DA60704722F48012FAE74FF08043DA6846
:1008F40011B142F40022F3E722F40022F0E74FF0B2
:100904008043DA6811B142F48022E9E722F48022BC
:10091400E6E74FF08043DA6811B142F40032DFE7D2
:1009240022F40032DCE74FF08043DA6879B142F414
:100934008032DA604FF080439A6A02F03F023F2A25
:10094400FAD15A6931B142F004025A61704722F473
:100954008032EEE722F00402F7E74FF08043DA68D2
:1009640011B142F40042BBE722F40042B8E74FF071
:100974008043DA6811B142F48042B1E722F4804244
:10098400AEE74FF08043DA6811B142F40052A7E7B2
:1009940022F40052A4E74FF080431A6919B142F0DF
:1009A40020021A61704722F02002FAE74FF08043D8
:1009B400DA6811B142F4805292E722F480528FE750
:1009C4004FF08043DA6811B142F4006288E722F400
:1009D400006285E74FF08043DA6811B142F4806227
:1009E4007EE722F480627BE74FF08043DA6811B13E
:1009F40042F4807274E722F4807271E74FF080430E
:100A0400DA6811B142F020026AE722F0200267E7B7
:100A14004FF08043DA6811B142F0800260E722F0BF
:100A240080025DE74FF08043DA6871B142F0400222
:100A3400DA604FF080439A6A02F03F023F2AFAD10B
:100A44005A6929B142F008027FE722F04002EFE739
:100A540022F0080279E74FF08043DA6811B142F0DE
:100A640010023DE722F010023AE74FF08043DA68C3
:100A740011B142F0007233E722F0007230E74FF018
:100A84008043DA6811B142F0807229E722F0807263
:100A940026E74FF08043DA6811B142F400021FE701
:100AA40022F400021CE74FF08043DA6811B142F4EB
:100AB400800215E722F4800212E74FF08043DA68DF
:100AC40011B142F008020BE722F0080208E74FF0E8
:100AD4008043DA6811B142F0040201E722F0040213
:100AE400FEE64FF08043DA6811B142F00202F7E605
:100AF40022F00202F4E64FF08043DA6811B142F0CA
:100B04000102EDE622F00102EAE64FF08043DA68E2
:100B140011B142F00062E3E622F00062E0E64FF039
:100B24008043DA6811B142F08062D9E622F0806233
:100B3400D6E64FF080431A6979B142F400721A6123
:100B44009A6A02F03F023F2AFAD15A6942F010022F
:100B54005A611A6942F0100223E722F010021A6166
:100B64009A6A02F03F023F2AFAD15A6922F010022F
:100B74005A611A6922F4007213E74FF080431A692C
:100B840079B142F480521A619A6A02F03F023F2A14
:100B9400FAD15A6942F020025A611A6942F4006299
:100BA400FFE622F400621A619A6A02F03F023F2AC9
:100BB400FAD15A6922F020025A611A6922F4805249
:100BC400EFE64FF080431A6971B142F008021A61EE
:100BD4004FF080439A6A02F03F023F2AFAD15A69E1
:100BE40029B142F00102B0E622F00802EFE722F058
:100BF4000102AAE64FF080431A6931B142F00402BF
:100C04001A611A6942F04002CBE622F004021A612A
:100C14001A6922F04002C4E64FF080431A6971B1A8
:100C240042F002021A614FF080439A6A02F03F02D6
:100C34003F2AFAD15A6929B142F0020285E622F02C
:100C44000202EFE722F002027FE64FF08043DA6807
:100C540011B142F0805243E622F0805240E64FF058
:100C640080431A6911B142F001029AE622F00102AE
:100C740097E64FF080431A6911B142F0800290E682
:100C840022F080028DE64FF080431A6911B142F4DC
:100C9400807286E622F4807283E64FF08043DA683D
:100CA40009B11A431CE622F0804219E64FF0804352
:100CB400DA6811B142F0005212E622F000520FE657
:100CC4004FF080431A6911B142F4806269E622F45C
:100CD400806266E64FF08043DA6811B142F4001294
:100CE400FEE522F40012FBE54FF08043DA6811B10F
:100CF40042F00042F4E522F00042F1E54FF4E13322
:100D0400036060238380002383714FF44013836066
:100D14007047036B19B143F001030363704723F079
:100D24000103FAE7036B23F0010370B50363C36A9D
:100D340023F01003C36200238363464B98420446A6
:100D44000D463ED1FFF768FDC00B0138022850D88C
:100D5400414B53F820002B68B0EB031F4FEA0311FB
:100D640075D36BB1B0FBF1F601FB1600C200B2FB08
:100D7400F3F202F0010303EB52039BB243EA06438E
:100D84001A0C03F03F036262A362E36A2A7923F038
:100D940060031343E362E36AAA7923F0080313436D
:100DA400E362EB7A8BB3E36A43F01003E3626B799B
:100DB400012B2ED0022B42D09BBBE36A23F002030B
:100DC4002EE0B0F1402F04D1FFF72CFDC0F34F30DB
:100DD400BBE7224B984204D1FFF72AFDC0F3CF2092
:100DE400B3E71F4B98420ED1FFF728FDC0F34F2005
:100DF400ABE7184B9C4202D0B4F1402F03D1022040
:100E0400FFF7BCFCA7E70320FAE7E36A23F010032B
:100E1400CCE7E36A43F00203E362E36A23F00403EA
:100E2400E362236BAA7A23F0300313432363236B17
:100E34002A8923F4404313432363002070BDE36AEB
:100E440043F00203E362E36A43F00403E8E74FF08C
:100E5400FF30F3E700300040341100080000014087
:100E640000100140836C12B119438164704723EA76
:100E74000101FAE7014B01221A6070475C0400206B
:100E840030B501218BB01F20FFF7DEFC01212020AB
:100E9400FFF7DAFC01214020FFF7D6FC01213120C5
:100EA400FFF7D2FC01213020FFF7CEFC1A481B4C7F
:100EB40001220021FFF742FC012211461648FFF7E8
:100EC4003DFC01A8FFF71AFF012501A920468DF872
:100ED4000F50FFF727FF29462046FFF71AFF104B54
:100EE400104A8DF82050CDE904340F4B09930F4B71
:100EF40004A8CDE90623FFF753FB9DF81F0000214A
:100F0400FFF7ECFB2A4602212046FFF7ABFF084B14
:100F14001B6803B9FEE7FEE700F40140003000401F
:100F24000000002000010100790E00080A001E00E4
:100F34005C0400207047FEE7FEE7FEE7FEE770472B
:100F4400704770477047FFF7CBBAFFF7F9BA000054
:100F540070B50D4E0D4D761BB61006D0002455F815
:100F6400043B01349847A642F9D1094E094D761B3A
:100F740000F0D2F8B61006D0002455F8043B013432
:100F84009847A642F9D170BD4411000844110008E5
:100F94004C11000844110008F0B4860746D0541ED2
:100FA400002A3CD0CAB2034601E0013C37D303F81F
:100FB400012B9D07F9D1032C2AD9CDB245EA052589
:100FC4000F2C45EA054534D9A4F1100222F00F0C88
:100FD40003F120071609674403F1100242E904559E
:100FE40042E902551032BA42F8D1721C14F00C0FC7
:100FF40003EB021204F00F0613D0331F23F0030394
:101004000433134442F8045B9342FBD106F0030417
:101014002CB1CAB21C4403F8012B9C42FBD1F0BC96
:10102400704734461346002CF3D1F8E714460346C0
:10103400C1E71A462646E0E7024B13B1024800F026
:1010440005B87047000000005D1000080023014649
:101054001A46184600F01AB838B5084B084D5B1B01
:101064009C1007D0043B1D44013C55F804399847B3
:10107400002CF9D1BDE8384000F054B850110008F4
:101084004C110008704700BF704700BF2DE9F047BE
:10109400DFF880A00646DAF8000098460F4691462D
:1010A400FFF7F0FF1A4B1B68D3F8484124B3656877
:1010B4001F2D26DC5EB9AB1C0135DAF80000656033
:1010C40044F82370FFF7E0FF0020BDE8F08704EB4D
:1010D40085030121C3F88890D4F88821A9400A43E4
:1010E400022EC4F88821C3F80881E4D1D4F88C31E5
:1010F4001943C4F88C11DEE703F5A674C3F848411C
:10110400D5E7DAF80000FFF7BFFF4FF0FF30DCE768
:101114004011000838040020F8B500BFF8BC08BC32
:101124009E467047F8B500BFF8BC08BC9E467047A1
:1011340000093D000080000000366E011000002010
:081144003D100008F90000084D
:04114C00D5000008C2
:101150003031323334353637383900000000000082
:1011600000000000FC02002064030020CC030020EB
:10117000000000000000000000000000000000006F
:10118000000000000000000000000000000000005F
:10119000000000000000000000000000000000004F
:1011A000000000000000000000000000000000003F
:1011B000000000000000000000000000000000002F
:1011C000000000000000000000000000000000001F
:1011D000000000000000000000000000000000000F
:1011E00000000000000000000000000000000000FF
:1011F00000000000000000000000000000000000EF
:1012000000000000000000000100000000000000DD
:101210000E33CDAB34126DE6ECDE05000B000000A2
:1012200000000000000000000000000000000000BE
:1012300000000000000000000000000000000000AE
:10124000000000000000000000000000000000009E
:10125000000000000000000000000000000000008E
:0C158000000000000000000080040020BB
:040000050800017D71
:00000001FF
