:020000040800F2
:1000000000400020B10D00084D2800084F280008CE
:100010005128000853280008552800080000000057
:100020000000000000000000000000005728000849
:100030000000000000000000592800085B280008AC
:10004000F90D0008F90D0008F90D0008F90D000878
:10005000F90D0008F90D0008F90D0008F90D000868
:10006000F90D0008F90D0008F90D0008F90D000858
:10007000F90D0008F90D0008F90D0008F90D000848
:10008000F90D0008F90D0008F90D0008F90D000838
:10009000F90D0008F90D0008F90D0008F90D000828
:1000A000F90D0008F90D0008F90D0008F90D000818
:1000B000F90D0008F90D0008F90D0008F90D000808
:1000C000F90D0008F90D00085D280008F90D000879
:0400D000F90D00081E
:1000D80010B5054C237833B9044B13B10448AFF37A
:1000E80000800123237010BD3C04002000000000A4
:1000F800D829000808B5034B1BB103490348AFF3DF
:10010800008008BD0000000040040020D829000835
:1001180081F0004102E000BF83F0004330B54FEAB0
:1001280041044FEA430594EA050F08BF90EA020F1D
:100138001FBF54EA000C55EA020C7FEA645C7FEAB0
:10014800655C00F0E2804FEA5454D4EB5555B8BFD3
:100158006D420CDD2C4480EA020281EA030382EA44
:10016800000083EA010180EA020281EA0303362DD6
:1001780088BF30BD11F0004F4FEA01314FF4801CA9
:100188004CEA113102D0404261EB410113F0004FBB
:100198004FEA03334CEA133302D0524263EB430372
:1001A80094EA050F00F0A780A4F10104D5F1200E10
:1001B8000DDB02FA0EFC22FA05F2801841F100016B
:1001C80003FA0EF2801843FA05F359410EE0A5F13F
:1001D80020050EF1200E012A03FA0EFC28BF4CF070
:1001E800020C43FA05F3C01851EBE37101F0004526
:1001F80007D54FF0000EDCF1000C7EEB00006EEB33
:100208000101B1F5801F1BD3B1F5001F0CD34908BC
:100218005FEA30004FEA3C0C04F101044FEA445213
:1002280012F5800F80F09A80BCF1004F08BF5FEA9A
:10023800500C50F1000041EB045141EA050130BD7A
:100248005FEA4C0C404141EB0101013C28BFB1F58C
:10025800801FE9D291F0000F04BF01460020B1FAD7
:1002680081F308BF2033A3F10B03B3F120020CDAAA
:100278000C3208DD02F1140CC2F10C0201FA0CF088
:1002880021FA02F10CE002F11402D8BFC2F1200CED
:1002980001FA02F120FA0CFCDCBF41EA0C019040A3
:1002A800E41AA2BF01EB0451294330BD6FEA0404EC
:1002B8001F3C1CDA0C340EDC04F11404C4F12002D7
:1002C80020FA04F001FA02F340EA030021FA04F3E9
:1002D80045EA030130BDC4F10C04C4F1200220FA40
:1002E80002F001FA04F340EA0300294630BD21FA7E
:1002F80004F0294630BD94F0000F83F4801306BF44
:1003080081F480110134013D4EE77FEA645C18BF37
:100318007FEA655C29D094EA050F08BF90EA020FCE
:1003280005D054EA000C04BF1946104630BD91EAC6
:10033800030F1EBF0021002030BD5FEA545C05D1C9
:100348004000494128BF41F0004130BD14F5800408
:100358003CBF01F5801130BD01F0004545F0FE417C
:1003680041F470014FF0000030BD7FEA645C1ABFB1
:10037800194610467FEA655C1CBF0B46024650EAE8
:10038800013406BF52EA033591EA030F41F4002114
:1003980030BD00BF90F0000F04BF0021704730B59A
:1003A8004FF4806404F132044FF000054FF000016F
:1003B80050E700BF90F0000F04BF0021704730B530
:1003C8004FF4806404F1320410F0004548BF404205
:1003D8004FF000013EE700BF42004FEAE2014FEA5A
:1003E80031014FEA02701FBF12F07F4393F07F4F35
:1003F80081F06051704732F07F4208BF704793F038
:100408007F4F04BF41F40021704730B54FF460744A
:1004180001F0004521F000411CE700BF50EA01024D
:1004280008BF704730B54FF000050AE050EA0102F6
:1004380008BF704730B511F0004502D5404261EB66
:1004480041014FF4806404F132045FEA915C3FF4A7
:10045800D8AE4FF003025FEADC0C18BF03325FEA44
:10046800DC0C18BF033202EBDC02C2F1200300FAF5
:1004780003FC20FA02F001FA03FE40EA0E0021FA1A
:1004880002F11444BDE600BF70B54FF0FF0C4CF408
:10049800E06C1CEA11541DBF1CEA135594EA0C0FBA
:1004A80095EA0C0F00F0DEF82C4481EA030621EAF5
:1004B8004C5123EA4C5350EA013518BF52EA033530
:1004C80041F4801143F4801338D0A0FB02CE4FF0E2
:1004D8000005E1FB02E506F00042E0FB03E54FF012
:1004E8000006E1FB03569CF0000F18BF4EF0010E0A
:1004F800A4F1FF04B6F5007F64F5407404D25FEA06
:100508004E0E6D4146EB060642EAC62141EA5551B8
:100518004FEAC52040EA5E504FEACE2EB4F1FD0CFA
:1005280088BFBCF5E06F1ED8BEF1004F08BF5FEA78
:10053800500E50F1000041EB045170BD06F000462A
:1005480046EA010140EA020081EA0301B4EB5C04D7
:10055800C2BFD4EB0C0541EA045170BD41F48011CF
:100568004FF0000E013C00F3AB8014F1360FDEBFF4
:10057800002001F0004170BDC4F10004203C35DAD0
:100588000C341BDC04F11404C4F1200500FA05F353
:1005980020FA04F001FA05F240EA020001F00042F4
:1005A80021F0004110EBD37021FA04F642EB06016A
:1005B8005EEA430E08BF20EAD37070BDC4F10C0494
:1005C800C4F1200500FA04F320FA05F001FA04F258
:1005D80040EA020001F0004110EBD37041F1000144
:1005E8005EEA430E08BF20EAD37070BDC4F120054F
:1005F80000FA05F24EEA020E20FA04F301FA05F2B7
:1006080043EA020321FA04F001F0004121FA04F25E
:1006180020EA020000EBD3705EEA430E08BF20EA2E
:10062800D37070BD94F0000F0FD101F00046400068
:1006380041EB010111F4801F08BF013CF7D041EAEA
:10064800060195F0000F18BF704703F000465200EE
:1006580043EB030313F4801F08BF013DF7D043EABF
:100668000603704794EA0C0F0CEA135518BF95EA75
:100678000C0F0CD050EA410618BF52EA4306D1D1FC
:1006880081EA030101F000414FF0000070BD50EA1B
:10069800410606BF1046194652EA430619D094EAA5
:1006A8000C0F02D150EA013613D195EA0C0F05D18F
:1006B80052EA03361CBF104619460AD181EA0301E3
:1006C80001F0004141F0FE4141F470014FF000009B
:1006D80070BD41F0FE4141F4780170BD70B54FF036
:1006E800FF0C4CF4E06C1CEA11541DBF1CEA1355B6
:1006F80094EA0C0F95EA0C0F00F0A7F8A4EB050498
:1007080081EA030E52EA03354FEA013100F088808E
:100718004FEA03334FF0805545EA131343EA126357
:100728004FEA022245EA111545EA10654FEA00260C
:100738000EF000419D4208BF964244F1FD0404F5C5
:10074800407402D25B084FEA3202B61A65EB030521
:100758005B084FEA32024FF480104FF4002CB6EBDE
:10076800020E75EB030E22BFB61A754640EA0C005E
:100778005B084FEA3202B6EB020E75EB030E22BF9E
:10078800B61A754640EA5C005B084FEA3202B6EBDF
:10079800020E75EB030E22BFB61A754640EA9C009E
:1007A8005B084FEA3202B6EB020E75EB030E22BF6E
:1007B800B61A754640EADC0055EA060E18D04FEA2C
:1007C800051545EA16754FEA06164FEAC30343EACC
:1007D80052734FEAC2025FEA1C1CC0D111F4801F99
:1007E8000BD141EA00014FF000004FF0004CB6E792
:1007F80011F4801F04BF01430020B4F1FD0C88BF31
:10080800BCF5E06F3FF6AFAEB5EB030C04BFB6EB3B
:10081800020C5FEA500C50F1000041EB045170BD2E
:100828000EF0004E4EEA113114EB5C04C2BFD4EB5B
:100838000C0541EA045170BD41F480114FF0000EDF
:10084800013C90E645EA060E8DE60CEA135594EA5B
:100858000C0F08BF95EA0C0F3FF43BAF94EA0C0F5E
:100868000AD150EA01347FF434AF95EA0C0F7FF4D3
:1008780025AF104619462CE795EA0C0F06D152EA27
:1008880003353FF4FDAE1046194622E750EA41060B
:1008980018BF52EA43067FF4C5AE50EA41047FF41C
:1008A8000DAF52EA43057FF4EBAE12E74FF0FF3C81
:1008B80006E000BF4FF0010C02E000BF4FF0010C52
:1008C8004DF804CD4FEA410C7FEA6C5C4FEA430CCB
:1008D80018BF7FEA6C5C1BD001B050EA410C0CBF1A
:1008E80052EA430C91EA030F02BF90EA020F00207C
:1008F800704710F1000F91EA030F58BF994208BFE3
:1009080090422CBFD8176FEAE37040F0010070479F
:100918004FEA410C7FEA6C5C02D150EA013C07D1F6
:100928004FEA430C7FEA6C5CD6D152EA033CD3D041
:100938005DF8040B704700BF8446104662468C463B
:100948001946634600E000BF01B5FFF7B7FF00286E
:1009580048BF10F1000F01BD4DF808EDFFF7F4FF97
:100968000CBF012000205DF808FB00BF4DF808ED22
:10097800FFF7EAFF34BF012000205DF808FB00BF45
:100988004DF808EDFFF7E0FF94BF012000205DF867
:1009980008FB00BF4DF808EDFFF7CEFF94BF01201C
:1009A80000205DF808FB00BF4DF808EDFFF7C4FF15
:1009B80034BF012000205DF808FB00BF4FEA410268
:1009C80012F5001215D211D56FF47873B3EB625299
:1009D80012D94FEAC12343F0004343EA505311F0C0
:1009E800004F23FA02F018BF404270474FF0000052
:1009F800704750EA013005D111F0004008BF6FF090
:100A0800004070474FF00000704700BF4A0011D205
:100A180012F5001211D20DD56FF47873B3EB625250
:100A28000ED44FEAC12343F0004343EA505323FA5C
:100A380002F070474FF00000704750EA013002D1D1
:100A48004FF0FF3070474FF00000704753B94AB974
:100A5800002908BF00281CBF4FF0FF314FF0FF30BE
:100A680000F06CB9ADF1080C6DE904CE00F006F8A1
:100A7800DDF804E0DDE9022304B070472DE9F04712
:100A8800089E0D4604468E46002B40F082808A421E
:100A9800174646D9B2FA82F24AB1C2F1200105FAE4
:100AA80002F320FA01F1974041EA030E94404FEA1D
:100AB8001748230CBEFBF8FCB9B208FB1CEE43EA4E
:100AC8000E430CFB01F098420AD9FB180CF1FF35D4
:100AD80080F01681984240F21381ACF1020C3B443D
:100AE8001B1AA4B2B3FBF8F008FB103344EA034422
:100AF80000FB01F1A14209D93C1900F1FF3380F054
:100B08000181A14240F2FE8002383C44641A40EA66
:100B18000C4000211EB1D4400023C6E90043BDE8C3
:100B2800F08702B9FFDEB2FA82F2002A4FD1CB1B5E
:100B38004FEA174E1FFA87F80121B3FBFEFC250C7C
:100B48000EFB1C3345EA034508FB0CF3AB4207D9FF
:100B58007D190CF1FF3002D2AB4200F2E7808446E7
:100B6800ED1AA3B2B5FBFEF00EFB105543EA05449F
:100B780008FB00F8A04507D93C1900F1FF3302D261
:100B8800A04500F2D7801846A4EB080440EA0C40C0
:100B9800C0E78B4208D9002E00F0AF800021C6E9DB
:100BA80000050846BDE8F087B3FA83F100294BD168
:100BB800AB4202D3824200F2B780841A65EB03038A
:100BC80001209E46002EAAD0C6E9004EA7E7C2F132
:100BD800200C01FA02F3974020FA0CF04FEA174E66
:100BE80021FA0CFC1843BCFBFEF1050C0EFB11CCE2
:100BF8001FFA87F845EA0C4501FB08F3AB4204FAF3
:100C080002F409D97D1901F1FF3C80F08B80AB42D9
:100C180040F2888002393D44EB1A85B2B3FBFEF0FE
:100C28000EFB103345EA034500FB08F3AB4207D936
:100C38007D1900F1FF3C71D2AB426FD902383D44B7
:100C4800EB1A40EA014178E7C1F1200C8B4022FA07
:100C58000CF71F4320FA0CF405FA01F34FEA174E7C
:100C680025FA0CF51C43230CB5FBFEF91FFA87F88F
:100C78000EFB195543EA054509FB08FAAA4502FA8D
:100C880001F200FA01F308D97D1909F1FF3047D2C2
:100C9800AA4545D9A9F102093D44A5EB0A05A4B224
:100CA800B5FBFEF00EFB105544EA054400FB08F8BE
:100CB800A04507D93C1900F1FF352DD2A0452BD905
:100CC80002383C4440EA0940A4EB0804A0FB02892E
:100CD8004C45C6464D4619D316D05EB1B3EB0E024D
:100CE80064EB050404FA0CFCCA404CEA0202CC404E
:100CF800C6E900240021BDE8F087314630460EE7FA
:100D0800AC46EDE6184601E74345E6D2B8EB020EDD
:100D180069EB07050138E0E72846D3E760468FE727
:100D28008146BAE7614677E708464BE7ACF1020C23
:100D38003D4415E702383C4426E700BF704700BF32
:100D4800064B0748E02283F82220C0210023C2185E
:100D58000133252B82F80013F9D1704700ED00E02C
:100D680000E100E00E4A08B5D2F8883043F4700379
:100D7800C2F888304FF08042D36843F08003D360D4
:100D8800084B5A6922F4702242F480325A619A68F8
:100D98009207FCD5FFF7D4FFBDE8084000F0C8BFB4
:100DA80000ED00E000000240002103E00B4B5B581F
:100DB800435004310A480B4B42189A42F6D30A4A68
:100DC80002E0002342F8043B084B9A42F9D3FFF7AC
:100DD800C9FF01F069FD01F00DFDFEE7882A000852
:100DE800000000203C0400203C0400208004002077
:100DF800FEE770472DE9F74FDDF83C9019F0030F37
:100E0800DDE90D4607468B46154628D00C9901EBBF
:100E180004081444A24226D119F0020F0AD0A4EB08
:100E28000508C1464E4505EB090226D83544464516
:100E380028BF2C46204603B0BDE8F08F5946202035
:100E48000193B847019B08F10108B0450AEB080275
:100E5800F4D3321BB44288BF00222A44D6E7A04606
:100E6800A2EB040AF1E702F1010A18F8010D019357
:100E78005946B847019B5246CCE759462020019372
:100E880009F10109B847019BCCE72DE9F047DDE9F5
:100E98000D7616F0020FDDE90854DDE90BC89DF860
:100EA80028E01FD106F001094FB1B9F1000F06D0B3
:100EB800BEF1000F02D116F00C0F00D0013F4FF029
:100EC800300A02E005F804A00134444501D2202C80
:100ED800F8D14FF0300AB9F1000F03D0BC4201D26B
:100EE8001F2C34D916F0100F1FD016F4806F33D191
:100EF80094B3444501D0BC422ED1B4F101082AD0A4
:100F0800BCF1100F33D1023C16F0200F31D11F2C49
:100F180015D84FF0780C05F804C001341F2C0ED8F2
:100F28004FF0300C05F804C001341F2C07D8BEF16F
:100F3800000F23D04FF02D0C05F804C00134CDE983
:100F48000A76CDE90854BDE8F047FFF753BF05F826
:100F580004A00134BFE74446BCF1100FD4D0BCF163
:100F6800020FDBD11F2CEAD84FF0620CD3E74446BE
:100F7800F5E71F2CE3D84FF0580CCCE716F0040F18
:100F880002D04FF02B0CD7E716F0080FD7D04FF050
:100F9800200CD1E72DE9F04391B0189D1A9E1D9FB2
:100FA8000DB927F010077C0500D50DB317F0200FF9
:100FB800AC460DF1200E4FF0000514BF4FF0370876
:100FC8004FF05708BCFBF6F906FB19C95FFA89F41C
:100FD800B9F1090F94BF30344444E4B2B4450EF873
:100FE800014BBCFBF6F405F1010501D3202D10D10E
:100FF8001C9C05941B9C0697CDE903649DF86440EE
:10100800CDE9015408AC0094FFF73FFF11B0BDE8EB
:10101800F083A446D6E72DE9F04F93B0DDE91CAB89
:10102800249D99465AEA0B0308BF25F010056B0565
:1010380006460F46904602D55AEA0B033CD00AAB47
:1010480015F0200F089314BF372357230024099362
:10105800DDE9202350465946FFF7F8FCD2B2092AA9
:101068008ABF099B3032D218089BD2B203F8012BF1
:101078000893DDE920239B4508BF924504F101044C
:1010880001D3202C15D1239B0593229B0493209BED
:1010980003939DF878300695CDE901430AAB009398
:1010A80042464B4639463046FFF7EFFE13B0BDE8DF
:1010B800F08F82468B46CBE70024E4E7014610B167
:1010C800014801F0C5BA7047003000400000000038
:1010D8002DE9F04F2DED068B91B0DDE9206708EE84
:1010E800100A08EE901A92469B4632463B46304616
:1010F8003946229DFFF730FC80B9249B0393239B3C
:10110800029303230193B64B009318EE901A18EE3E
:10111800100A5B465246FFF76DFE47E04FF0FF327C
:101128006FF4801330463946FFF720FC38B1249B12
:101138000393239B029304230193AA4BE4E7AA4B4E
:101148004FF0FF3230463946FFF72EFC78B1249B2A
:10115800A64A2499039103F00403002B2399A44B76
:101168000EBF032213460422CDE90121CCE798A340
:10117800D3E9002330463946FFF716FC38B996A361
:10118800D3E9002330463946FFF7F0FB98B1249B9A
:101198000493239BCDE90067CDE9025318EE901A1A
:1011A80018EE100A5B46524600F02AF911B0BDEC61
:1011B800068BBDE8F08F0022002330463946FFF742
:1011C800D5FB002800F082803B46324600200021F3
:1011D800FEF7A2FF012306460F460793249B13F44C
:1011E800806F08BF062508ABA5F12002A94630216B
:1011F800B9F1090FA5EB090406D909F1FF394A45E8
:1012080003F8011BF4D1202439463046FFF7D6FBFA
:10121800784B03EBC90393ED007B0546B0EE479A84
:10122800F0EE679AFFF7C6F802460B463046394695
:10123800FEF772FF53EC192BFFF726F902460B460F
:1012480043EC1A2BFFF7E2FB8046FFF7A3F80246B0
:101258000B4651EC1A0BFEF75FFF02460B4643ECB8
:101268001A2B654B0022FFF79FFB88B308F1010892
:101278004046FFF78FF802460B4651EC190BFFF773
:101288007FFB10B101354FF00008B9F1000F4ED1C6
:101298002846FFF78FF802460B4630463946FEF7D8
:1012A8003BFF554B002280468946FFF75FFB30B174
:1012B800514B002240464946FFF776FB10B1E8073C
:1012C80000D5013508AB23440A2258E0079085E78A
:1012D800494B51EC1A0B0022FFF748FB0028D4D1E8
:1012E800B8F1000F02D018F0010FCED008F10108B4
:1012F800CBE7B8FBF1F001FB10823032B8F1090FEF
:1013080003F8012B09F1FF3904F1010427D8A1449E
:1013180008AA3021202C0FD04C4504F1010320D11C
:1013280010AA14442E2204F8202C1C46CAE708AB45
:1013380023440A21202CDCD1249B03F00303012B36
:1013480008AB2CD1239A52B3079A1AB9249A12F0EF
:101358000C0F02D0239A013A2392302214E08046DF
:10136800E8E7A1541C46D5E795FBF2F102FB1155BD
:10137800303503F8015B01340D460029DCD0202C00
:10138800F2D1D9E71A5501342399A14207D9202C63
:10139800F8D1249A0392239ACDE90142B4E6202C8D
:1013A800F7D0079A32B110AA22442D2102F8201C46
:1013B8000134EEE7249A510703D510AA22442B21C1
:1013C800F4E7249A1207E4D510AA22442021EDE775
:1013D8000000000065CDCD410000000065CDCDC105
:1013E800552A0008592A0008FFFFEF7F502A0008F5
:1013F8004C2A0008F02900080000E03F0000000027
:101408002DE9F04F2DED088B8DB01D46DDE920B399
:101418009DED1E7B0793229B0A9208EE900AB0EE80
:10142800479AF0EE679A0C46069351EC170B53EC6B
:10143800172BFFF791FA80B1CF4B51EC190B4FF0F6
:10144800FF32FFF7B1FA40B951EC190B4FF0FF32F8
:101458006FF48013FFF78AFA90B1069B2293079BDB
:101468000A9A18EE900ACDE920B321462B468DED55
:101478001E9B0DB0BDEC088BBDE8F04FFFF728BEF2
:1014880051EC190B00220023FFF770FA002800F036
:101498004E8119EE903A19EE108A03F10049069B25
:1014A8009FEDB67A9FEDB68A13F480630B93C9F368
:1014B8000A53A3F2FF3307EE903AC9F31302F8EE8A
:1014C800E77A42F07F51AF4B4FF00002404641F4BB
:1014D800401108BF4FF0060BA7EE878AFEF71CFEE7
:1014E8009FA3D3E90023FEF7CFFF064618EE100AA4
:1014F8000F46FEF771FF02460B4630463946FEF7A7
:101508000DFEFFF75BFA07EE900AB8EEE77ADFED1B
:101518009E7AB6EE008AA7EE278A8246DFED9B7A8E
:10152800BDEEC88AF8EEC86A67EEE67ADFED986A1B
:10153800E7EE267A17EE900AFEF74EFF02460B46B4
:1015480006460F46FEF7A0FF324641EC1A0B3B4613
:1015580030463946FEF7E2FD8E4B41EC1B0B00226C
:1015680051EC1A0BFFF7BAF88B4B0022FEF7D6FDA9
:1015780002460B4651EC1A0BFFF7B0F8874B0022D6
:10158800FEF7CCFD02460B4651EC1A0BFFF7A6F806
:10159800324641EC1A0B3B4600204FF08041FEF7E3
:1015A800BBFD02460B4651EC1A0BFEF7B7FD02468F
:1015B8000B4651EC1B0BFFF791F8794B0022FEF715
:1015C800ADFD18EE103A03F2FF3633050022FEF7A0
:1015D8005BFF06460F4602460B4640464946FFF764
:1015E800C5F9002840F0A680CDE908670AF1630331
:1015F800C72B069B34BF04260526190523D55AA3F5
:10160800D3E9002340464946FFF7C4F9002800F013
:101618009C8057A3D3E9002340464946FFF7A6F923
:10162800002800F09280069BDA45B8BFABEB0A0BA6
:1016380043F480634FF00006B4BF0BF1FF3B4FF05B
:10164800000B0693B246079BB34288BF9F1B069BBD
:1016580098BF002713F002030B9302D0002E18BF87
:101668000027BAF1000F07D040464946DDE90823B4
:10167800FFF734F88046894651EC190B0022002305
:10168800FFF774F910B109F100439946069B0A9ACD
:10169800CDF808B023F40063CDE90373CDE90089E0
:1016A80018EE900A2B462146FFF712FD0746002E3A
:1016B80037D0069B13F0200F00F10109024618EEFF
:1016C800907A14BF452065202B462146B84705234C
:1016D800059300220A238AEAEA70CDE90232A0EBD8
:1016E800EA704FEADA73013E019300902B4618EE38
:1016F800900A04964A462146FFF74CFC0B9B074686
:101708007BB10A9BA0EB0309C8460A9B03EB0802BE
:10171800079B434546D807990A9B0B44494528BF70
:101728001F4638460DB0BDEC088BBDE8F08F59EC6C
:10173800198BB4E6184B002230463946FEF7CEFF27
:101748000AF1FF3ACDE9080150E7BBF1000F3FF479
:101758007AAF0B9B002B3FF476AF0BF1FF3B72E7A0
:1017680000000060A787D23F000000E0E2361A3F81
:101778000000000080842E41FFFFEF7F9B209A3EEF
:101788004451343E0000F83F789A54401872313F73
:101798008E5D134000002C400000244000001840DB
:1017A8000000F03F18EE906A2B4621462020B047F3
:1017B80008F10108A9E700BF2DE9F04F91B0002911
:1017C8000A93C74B1A9E904614BF81469946002536
:1017D8000A9B187858B945452CBF08F1FF322A46AC
:1017E80043460020C847284611B0BDE8F08F0A9B41
:1017F800252803F101030A9306D02A466C1C4346A8
:101808000B91C8472546B7E1002206E02D2B14D0DE
:10181800302B0CD142F001020A900A9810F8013BD3
:101828002B2B0DD0F2D8202B0DD0232B0ED0A3F1CB
:101838003004092C28D8002710E042F00202EBE718
:1018480042F00402E8E742F00802E5E742F010023D
:10185800E2E70A2404FB0737303F0A900A9810F899
:10186800013BA3F13004092CF3D90A9B1B782E2BDA
:1018780067D10A9B581C5B78A3F13004092C42F409
:10188800806255D8002411E02A2B08D156F8047B31
:101898000A90002FBCBF42F002027F42E5E7002712
:1018A800E3E70A2000FB0434303C604684461CF819
:1018B800013BA3F1300EBEF1090FF2D9034613F82C
:1018C80001CBBCF16C0F48D03ED8BCF1680F4DD0AD
:1018D800BCF16A0F55D0034613F8010B0A93782818
:1018E8008BD8572850D8452805D086D9462800F0E7
:1018F8003081472881D100F0DF03472B04BF00F077
:10190800FD0042F40062452808BF42F02002CDE9FC
:101918000372073626F007060294F6E802234846C3
:10192800CDE9002343462A460B91FFF769FD22E1E2
:101938002A2B07D156F8044B0A9824EAE47402309B
:10194800BCE70A980024B9E7BCF1740F02D0BCF1D7
:101958007A0FC0D142F48072BEE790F801C0BCF1A2
:101968006C0FF7D142F44072831CB5E790F801C0C0
:10197800BCF1680F02D042F08002ADE742F0C0022D
:10198800F2E742F40072A7E7A0F15803202B3FF6D4
:1019980034AF0FF2080C5CF823F000BF291A0008D6
:1019A80003180008031800080318000803180008A3
:1019B8000318000803180008031800080318000893
:1019C80003180008291A0008851B0008291A0008AE
:1019D800FF1800085F1B0008FF180008031800081C
:1019E800291A00080318000803180008031800083B
:1019F8000318000803180008291A0008D51C000855
:101A08000318000803180008011C00080318000840
:101A1800291A00080318000803180008291A0008E2
:101A2800782800F06981582800F064816F2800F058
:101A38006581622800F06481692822F010024FF065
:101A48000A0303D0642801D022F00C0212F4806F3C
:101A580018BF22F00102692802F4007C01D0642832
:101A680044D1BCF1000F23D0073626F00700824688
:101A780040685AF8086B049300230593C30F029338
:101A8800002E034673F10000CDE907720694324632
:101A980002DA724263EB4303CDE90023484643462A
:101AA8002A460B91FFF7B7FA0B99054656468FE67B
:101AB800D00506F1040A0CD53068CDE90472CDE9E9
:101AC800023400284FEAD0730193B8BF4042009017
:101AD80028E012F0400F306804D0C0B2EDE700BF34
:101AE800FB0D0008160648BF00B2E6E7BCF1000F80
:101AF8000CD0CDE907720022CDE90432073626F072
:101B0800070A06940292FAE80223C5E7D00506F10F
:101B1800040A0ED5CDE90472CDE90234CDF804C02B
:101B28003368009343462A4648460B91FFF732FA3A
:101B3800BAE712F0400F306807D0C0B2CDE90234DE
:101B48000023CDE904720193C1E7160648BF80B2AD
:101B5800F4E742F02002CDE90372073626F00706C3
:101B68000294F6E802234846CDE9002343462A4674
:101B78000B91FFF7ADFA05460B9929E612F002041E
:101B880026D04FF0010A56F8040B0B9143462A461B
:101B9800C0B2C84705F1010B0B995CB354465A46CD
:101BA80020E00B9143462020C8470B990AEB050219
:101BB8000AF1010A5745F4D8002F07F1FF3308BF8F
:101BC800002307F1010A1D4408BF4FF0020ADAE7B3
:101BD800A246EBE70B9143462020551CC8470B99BA
:101BE80001342A46BC42F5D3A7EB0A03574538BF50
:101BF80000239B445D46EBE5334653F8046B0B9397
:101C0800404B002E08BF1E46002C14BF23464FF041
:101C1800FF333344B3469BF8000008B19B4511D10C
:101C280012F48063ABEB060B0C9302D0A34528BFDC
:101C3800A34612F002030D931CD1ABEB05032A4611
:101C48000E930AE00BF1010BE5E70F9143462020C4
:101C580002F1010AC8470F9952460E9B1344BB4232
:101C6800F3D3A7EB0B035F4538BF00230BF1010B40
:101C78001D449B44A5EB060A05E01C460E9143460D
:101C88002A46C8470E990AEB060516F8010B28B133
:101C98000C9B002BF2D0631E002CEED10D9B9BB148
:101CA8002A46ABEB050406E00C9143462020561C5F
:101CB800C8470C9932461319BB42F5D3A7EB0B035F
:101CC8005F4538BF00231D440B9E81E542F0210289
:101CD8000823CDE90343059200231022CDE9013200
:101CE80056F8043B00932A46434648460B91FFF7B3
:101CF80051F940E742F020021023A5E60823A3E6A5
:101D08000223A1E65E2A00080FB41FB506AA02A99D
:101D180052F8043B0392009204484FF0FF32FFF759
:101D28004BFD05B05DF804EB04B07047C510000822
:101D380008B5012000F05EF80B4B984213D90B4A06
:101D48000133B0FBF3F31370094A4FF47A73B0FB15
:101D5800F3F0084B0138E021586082F82310002284
:101D68009A6007221A6008BD3F420F0058040020FD
:101D780000ED00E010E000E030B5094B09491B78A0
:101D88004D6863B18A685843002314468A689442B0
:101D9800FBD098BF5B1923449B1A8342F5D330BD0F
:101DA8005804002010E000E04FF47A735843FFF71E
:101DB800E3BF0000072910B510D90D4B0839984228
:101DC8000BBF01EB4101890007230F238B408A4099
:101DD800C16B21EA03031A43C26310BD836B8900F8
:101DE8000F248C4023EA04038A401A438263F4E7F1
:101DF80000FC01404FF0804301461A6802F4E042BB
:101E0800B2F5A04F20D015D8B2F5805F1ED0B2F53C
:101E1800005F1B4808BF4FF4004002291BD003296C
:101E280023D0012905D14FF080431B68C3F3032356
:101E3800D8407047B2F5C04F0BD0114B1148B2F5DE
:101E4800E04F18BF1846E8E70F48E6E74FF4FA40B6
:101E5800E3E70E48E1E74FF080421368C3F303233A
:101E6800D8401368C3F34213E2E74FF08042136887
:101E7800C3F30323D8401368C3F3C233D8E700BFC2
:101E880000366E01006CDC020048E80100093D00E4
:101E98004FF08043986800F4C03070474FF080439B
:101EA800986800F4C04070474FF08043986800F489
:101EB800C05070474FF08043986800F4C060704786
:101EC8004FF08043586800F00200704741284AD814
:101ED800DFE810F011020702FD01E401D201B901A7
:101EE800710167015D01530149013F0135010D0190
:101EF8000301D600EA00E000CC004900C200B800A7
:101F0800AE00A30099008F0085006B0061005700A8
:101F18004D004200170121012B01490049004900E9
:101F28004900490049004900490049004900490061
:101F3800490049002E0225021B023802950149007A
:101F48004900490049004900490049004900490041
:101F58004900490042024C024FF08043DA6819B147
:101F680042F48012DA60704722F48012FAE74FF0E8
:101F78008043DA6811B142F40022F3E722F4002228
:101F8800F0E74FF08043DA6811B142F48022E9E7C4
:101F980022F48022E6E74FF08043DA6811B142F478
:101FA8000032DFE722F40032DCE74FF08043DA68E2
:101FB80079B142F48032DA604FF080439A6A02F0D5
:101FC8003F023F2AFAD15A6931B142F004025A61FC
:101FD800704722F48032EEE722F00402F7E74FF070
:101FE8008043DA6811B142F40042BBE722F40042B0
:101FF800B8E74FF08043DA6811B142F48042B1E7A4
:1020080022F48042AEE74FF08043DA6811B142F41F
:102018000052A7E722F40052A4E74FF080431A6960
:1020280019B142F020021A61704722F02002FAE743
:102038004FF08043DA6811B142F4805292E722F4FB
:1020480080528FE74FF08043DA6811B142F40062A2
:1020580088E722F4006285E74FF08043DA6811B11F
:1020680042F480627EE722F480627BE74FF080438F
:10207800DA6811B142F4807274E722F4807271E771
:102088004FF08043DA6811B142F020026AE722F08B
:10209800200267E74FF08043DA6811B142F080020E
:1020A80060E722F080025DE74FF08043DA6871B1A3
:1020B80042F04002DA604FF080439A6A02F03F0231
:1020C8003F2AFAD15A6929B142F008027FE722F083
:1020D8004002EFE722F0080279E74FF08043DA6820
:1020E80011B142F010023DE722F010023AE74FF03A
:1020F8008043DA6811B142F0007233E722F00072CF
:1021080030E74FF08043DA6811B142F0807229E776
:1021180022F0807226E74FF08043DA6811B142F46A
:1021280000021FE722F400021CE74FF08043DA6840
:1021380011B142F4800215E722F4800212E74FF051
:102148008043DA6811B142F008020BE722F0080276
:1021580008E74FF08043DA6811B142F0040201E762
:1021680022F00402FEE64FF08043DA6811B142F033
:102178000202F7E622F00202F4E64FF08043DA6842
:1021880011B142F00102EDE622F00102EAE64FF059
:102198008043DA6811B142F00062E3E622F000629F
:1021A800E0E64FF08043DA6811B142F08062D9E688
:1021B80022F08062D6E64FF080431A6979B142F482
:1021C80000721A619A6A02F03F023F2AFAD15A69EC
:1021D80042F010025A611A6942F0100223E722F015
:1021E80010021A619A6A02F03F023F2AFAD15A692C
:1021F80022F010025A611A6922F4007213E74FF0B4
:1022080080431A6979B142F480521A619A6A02F0DD
:102218003F023F2AFAD15A6942F020025A611A69EC
:1022280042F40062FFE622F400621A619A6A02F040
:102238003F023F2AFAD15A6922F020025A611A69EC
:1022480022F48052EFE64FF080431A6971B142F0F0
:1022580008021A614FF080439A6A02F03F023F2A4F
:10226800FAD15A6929B142F00102B0E622F0080217
:10227800EFE722F00102AAE64FF080431A6931B174
:1022880042F004021A611A6942F04002CBE622F0D9
:1022980004021A611A6922F04002C4E64FF0804332
:1022A8001A6971B142F002021A614FF080439A6ACA
:1022B80002F03F023F2AFAD15A6929B142F00202DC
:1022C80085E622F00202EFE722F002027FE64FF0F5
:1022D8008043DA6811B142F0805243E622F080521E
:1022E80040E64FF080431A6911B142F001029AE6C4
:1022F80022F0010297E64FF080431A6911B142F0CB
:10230800800290E622F080028DE64FF080431A6941
:1023180011B142F4807286E622F4807283E64FF0AF
:102328008043DA6809B11A431CE622F0804219E6B4
:102338004FF08043DA6811B142F0005212E622F001
:1023480000520FE64FF080431A6911B142F48062DF
:1023580069E622F4806266E64FF08043DA6811B1DC
:1023680042F40012FEE522F40012FBE54FF0804330
:10237800DA6811B142F00042F4E522F00042F1E5DA
:1023880010B50C4605280ED8DFE800F003151F2805
:10239800335E364A3649136834B123F0200313609C
:1023A8008B685B07FCD510BD43F0200313608B6876
:1023B8005C07FCD4F7E72F4A136819B123F40043EC
:1023C8001360F0E743F40043FAE72A4A136811B1AF
:1023D80023F4C043F4E743F4C043F1E7234A136806
:1023E80023F0180311B143F00803E9E743F01003A1
:1023F800E6E701210E20FFF769FD1F4BD3F8042102
:10240800CCB190060BD4D3F8042142F02002C3F8D3
:102418000421D3F8042122F08002C3F80421164BCA
:10242800D3F8042142F00402C3F80421D3F80821A8
:102438009107FBD5B7E722F00402C3F80421D3F8CB
:1024480008219207FBD4AEE7084A0949136834B15A
:1024580023F0400313608B68002BFCDAA3E743F0FA
:10246800400313608B68002BFCDB9CE7188000405E
:10247800008200400880004000900040034940F678
:10248800FF53CA6A33EA0202FBD1704700E00040FA
:1024980008B5FFF7F3FF054B1A6818B142F08052F0
:1024A8001A6008BD22F08052FAE700BF00E0004041
:1024B80070B500285AD0058840F633039D4255D898
:1024C8008378072B52D8C3780C2B4FD803791F2B4E
:1024D8004CD84379272B49D883793C2B46D8C379E4
:1024E8003C2B43D8FFF7CAFF02798378C6780A24C1
:1024F800B2FBF4F104FB1122D2B242EAC322B6FBCA
:10250800F4F342EA832204FB1363DBB23035EDB205
:1025180042EA831242EA0112B5FBF4F304FB1355B5
:1025280042EA8342EDB242EA8532114D6A61FFF711
:10253800A5FF4379C179B3FBF4F204FB1233DBB294
:102548008679B1FBF4F09B0304FB101143EA824344
:10255800C9B2B6FBF4F20B4304FB126443EAC2238C
:10256800E4B243EAC41343EA00132B6170BD00BF11
:1025780000E00040F8B5054600285FD03148034622
:10258800476BB9B25E6C5A6CB242FBD19C6C9A6CC8
:10259800A242FBD15A6B92B29142F1D10029EFD0FD
:1025A800FFF78EFCBFB207EE907AB8EEE77AF6EE48
:1025B800007A002843D1DFED246AC6F3021306F03F
:1025C8000F0203EB830302EB4303EB71C6F3C22351
:1025D800C6F3C31203EB830302EB4303AB71C6F3E9
:1025E800814303EB8303C6F3833606EB4306C4F348
:1025F800011304F00F0203EB830302EB43032B7177
:10260800C4F380239A001344C4F3831202EB4303F8
:10261800E7EE267AEB70C4F3C223AB70C4F38343AE
:1026280003EB8303C4F38334FCEEE77A04EB43043F
:1026380004F5FA64C5ED027A6E712C80F8BDDFED01
:10264800036ABAE700E000400024F4410000FA41C0
:1026580083699B06FCD4016070474FF4E133036043
:1026680060238380002383714FF440138360704795
:10267800036B19B143F001030363704723F00103AF
:10268800FAE70000036B23F0010370B50363C36A24
:1026980023F01003C36200238363464B9842044629
:1026A8000D463ED1FFF7F4FBC00B0138022850D885
:1026B800414B53F820002B68B0EB031F4FEA03117E
:1026C80075D36BB1B0FBF1F601FB1600C200B2FB8B
:1026D800F3F202F0010303EB52039BB243EA064311
:1026E8001A0C03F03F036262A362E36A2A7923F0BB
:1026F80060031343E362E36AAA7923F008031343F0
:10270800E362EB7A8BB3E36A43F01003E3626B791D
:10271800012B2ED0022B42D09BBBE36A23F002038D
:102728002EE0B0F1402F04D1FFF7B8FBC0F34F30D3
:10273800BBE7224B984204D1FFF7B6FBC0F3CF208A
:10274800B3E71F4B98420ED1FFF7B4FBC0F34F20FD
:10275800ABE7184B9C4202D0B4F1402F03D10220C2
:10276800FFF748FBA7E70320FAE7E36A23F0100323
:10277800CCE7E36A43F00203E362E36A23F004036D
:10278800E362236BAA7A23F0300313432363236B9A
:102798002A8923F4404313432363002070BDE36A6E
:1027A80043F00203E362E36A43F00403E8E74FF00F
:1027B800FF30F3E700300040402A000800000140E5
:1027C8000010014010B5094C2046FFF771FE0120AA
:1027D800FFF75EFE2046FFF7CDFEE379A279617927
:1027E8000348BDE81040FFF78FBA00BF0000002083
:1027F800652A000808B5FFF79BFA00F02DF80121BB
:102808001120FFF763FB01210220FFF7B9FD012129
:102818000320FFF75BFBFFF7D5FF084C084D07487F
:10282800FFF7A8FEE379A27961792846FFF76CFAE9
:102838004FF4FA70FFF7B8FAF1E700BF0000002084
:10284800652A00087047FEE7FEE7FEE7FEE77047E7
:1028580070477047704700001FB501211F20FFF720
:1028680035FB01212020FFF731FB0D480D4C0122DB
:102878000021FFF79FFA012211460948FFF79AFA4B
:1028880001A8FFF7EAFE4FF4E13301A920460193BE
:10289800FFF7F8FE01212046FFF7EAFE04B010BD5D
:1028A80000F401400030004070B50D4E0D4D761B10
:1028B800B61006D0002455F8043B01349847A642C8
:1028C800F9D1094E094D761B00F082F8B61006D0F2
:1028D800002455F8043B01349847A642F9D170BD4D
:1028E8007C2A00087C2A0008842A00087C2A000820
:1028F800024B13B1024800F005B870470000000011
:1029080019290008002301461A46184600F01AB88B
:1029180038B5084B084D5B1B9C1007D0043B1D4481
:10292800013C55F804399847002CF9D1BDE83840E6
:1029380000F054B8882A0008842A0008704700BFAD
:10294800704700BF2DE9F047DFF880A00646DAF8A7
:10295800000098460F469146FFF7F0FF1A4B1B6898
:10296800D3F8484124B365681F2D26DC5EB9AB1C3B
:102978000135DAF80000656044F82370FFF7E0FFDE
:102988000020BDE8F08704EB85030121C3F8889097
:10299800D4F88821A9400A43022EC4F88821C3F834
:1029A8000881E4D1D4F88C311943C4F88C11DEE7DE
:1029B80003F5A674C3F84841D5E7DAF80000FFF735
:1029C800BFFF4FF0FF30DCE7702A00083804002012
:1029D800F8B500BFF8BC08BC9E467047F8B500BF04
:0829E800F8BC08BC9E467047D4
:1029F000000000000000F03F000000000000244044
:102A000000000000000059400000000000408F401E
:102A1000000000000088C34000000000006AF84089
:102A20000000000080842E4100000000D0126341AD
:102A30000000000084D797410000000065CDCD4123
:102A400000093D000080000000366E01666E6900DE
:102A5000666E692B006E616E00666E692D00286ED1
:102A6000756C6C290025643A25643A25640D0A00CA
:042A70001000002032
:082A740010E0FF7F01000000EB
:082A7C00F9280008FD00000824
:042A8400D90000086D
:102A8800E307060C1F173B3700000000000000009A
:102A980000000000FC02002064030020CC0300209A
:102AA800000000000000000000000000000000001E
:102AB800000000000000000000000000000000000E
:102AC80000000000000000000000000000000000FE
:102AD80000000000000000000000000000000000EE
:102AE80000000000000000000000000000000000DE
:102AF80000000000000000000000000000000000CE
:102B080000000000000000000000000000000000BD
:102B180000000000000000000000000000000000AD
:102B2800000000000000000000000000000000009D
:102B3800000000000000000001000000000000008C
:102B48000E33CDAB34126DE6ECDE05000B00000051
:102B5800000000000000000000000000000000006D
:102B6800000000000000000000000000000000005D
:102B7800000000000000000000000000000000004D
:102B8800000000000000000000000000000000003D
:0C2EB80000000000000000005C0400208E
:0400000508000DB131
:00000001FF
